:020000040800F2
:10000000900600202D02000831020008330200088B
:10001000350200083702000839020008000000001D
:100020000000000000000000000000003B0200088B
:100030003D020008000000003F02000841020008E5
:10004000430200084302000843020008430200087C
:10005000430200084302000843020008430200086C
:10006000430200084302000843020008430200085C
:10007000430200084302000843020008430200084C
:10008000430200084302000843020008430200083C
:10009000430200084302000843020008430200082C
:1000A000430200084302000843020008430200081C
:1000B0004302000843020008F1530008430200080D
:1000C00043020008430200084302000843020008FC
:1000D00043020008890600084302000843020008A2
:1000E00043020008430200084302000843020008DC
:1000F00043020008430200084302000843020008CC
:1001000043020008430200084302000843020008BB
:1001100043020008430200084302000843020008AB
:10012000430200084302000843020008430200089B
:1001300000F002F800F06BF80AA090E8000C82448E
:100140008344AAF10107DA4501D100F060F8AFF26B
:10015000090EBAE80F0013F0010F18BFFB1A43F0A5
:100160000103184724820000448200000A444FF033
:10017000000C10F8013B13F0070408BF10F8014B06
:100180001D1108BF10F8015B641E05D010F8016B4B
:10019000641E01F8016BF9D113F0080F1EBF10F8AF
:1001A000014BAD1C0C1B09D16D1E58BF01F801CBD2
:1001B000FAD505E014F8016B01F8016B6D1EF9D555
:1001C0009142D6D37047000000230024002500266A
:1001D000103A28BF78C1FBD8520728BF30C148BFAA
:1001E0000B607047642905F00F86752905F00C86B1
:1001F000782905F04586632905F09987732905F06C
:100200009E87002070471FB51FBD10B510BD05F0BB
:10021000C9FF1146FFF7F7FF00F022F805F0E7FFEE
:1002200003B4FFF7F2FF03BC00F024FA08480047CC
:10023000FEE7FEE7FEE7FEE7FEE7FEE7FEE7FEE796
:10024000FEE7FEE703480449024A044B70470000FA
:10025000310100089002002090060020900200204A
:100260001CB5092000F0C1F94FF4E131482000F03D
:1002700033FA482000F0C8F800F02AFF00F088FAAE
:1002800001F042FC3448416848208847334D4FF420
:1002900078401024288032A0CDE900402346C822AF
:1002A00032211E2004F07DFD31A0CDE90040102355
:1002B000C82246211E2004F074FD33A0CDE9004081
:1002C0001023C8225A211E2004F06BFD32A0CDE974
:1002D00000401023C8226E211E2004F062FD1F2062
:1002E0002880304D4FF4FA7620E02FA005F030FD45
:1002F00033A0CDE900401023C8228C211E2004F039
:1003000050FD304600F0A5F832A0CDE900401023A2
:10031000C8228C211E2004F044FD304600F099F8DC
:10032000D5F89401A8B10021C5F8941100F07FFA26
:100330000028DAD02CA005F00BFD2FA0CDE900405D
:100340001023C8228C211E2004F02BFD00F04EFC4F
:10035000FCE70121E8E70000600000200E0000201B
:10036000576172536869702053544D333200000056
:1003700053656E736F722050414A373632305532B2
:10038000205445535400000041544F4D40414C49C6
:10039000454E54454B000000323031372F382F3254
:1003A000330000000080214250414A373632305538
:1003B00032204572726F722121210D0A0000000067
:1003C00050414A373632305532204572726F7221B1
:1003D000212100002020202020202020202020205B
:1003E000202020202020000050414A37363230554E
:1003F00032204F4B0D0A000050414A3736323055FB
:1004000032204F4B000000004FF0E0210A6922F03B
:1004100004020A611849C00800EB40020870C2EBF0
:10042000C0104FF6FF7202EAC000488070471249C0
:10043000097848434FF0E021486100238B61012097
:1004400008610869C20701D0C003FAD50B618B614E
:1004500070470949498848434FF0E021486100232B
:100460008B61012008610869C20701D0C003FAD579
:100470000B618B617047000000000020734A11403F
:1004800001437348016070470721714A8143121D7F
:1004900010684FF6FF0318406E4B184340EA0120E6
:1004A00010607047F0B5054614460F461E461846C4
:1004B000FFF7EAFFC6F1040085400F22F2403A4000
:1004C0002A436009800000F1E020D0F8001104F018
:1004D0001F050123AB401943C0F8001104F1E024CB
:1004E00094F8000440EA021084F80004F0BD70B5EE
:1004F000594D8B088C07AE69240F46F00106AE619A
:100500009D00564B2B449E680F25A540AE439E6030
:100510009D68A04005439D60514B1C6801208840A8
:1005200004431C60D10704D04D490C310B680343D0
:100530000B60910704D54A4A0832116801431160E3
:1005400070BD454800210161C16014224261816192
:10055000C161026842F0010202604268414B1A40E8
:1005600042600268404B1A400260026822F4802216
:100570000260426822F4FE0242608160C0037DE7AF
:1005800030BF704772B6704762B670473048083067
:10059000016841F0040101602F48C16941F08051B8
:1005A000C1613248416841F480714160016841F0A5
:1005B00004010160016841F00201016030BF704731
:1005C00024482349001D091D086070474106224840
:1005D000826942F0010282612048426822F0E062B2
:1005E000426042680A434260704730B505460024C5
:1005F000FFF7A7FF1849086840F4803008600868D2
:10060000400CFCD04FF480604860AD1E4A68E8B2F0
:1006100042EA80404860486840F4803048601448AE
:10062000026842F032020260086840F080700860A0
:100630000868400EFCD0486840F00200486002E0C4
:100640004868C0F38104022CFAD130BD80FFFF1F3F
:1006500008ED00E00000FA05001002400000014033
:10066000000401400000FFF8FFFFF6FE00700040AC
:1006700000200240704740490A885206FCD53E4A95
:10068000C1B2121D1180704730B53B48008880060A
:100690000ED53948001D0088384AC1B210880304BD
:1006A00006D444044FF0000306D50A2901D0138074
:1006B00030BD40F400400DE00D2909D0C0F30D0419
:1006C0002F4D401C80B229551080C728EFD830BD6F
:1006D00040F48040108030BD70B50446080106F03B
:1006E00023F805462748604306F01EF8294605F022
:1006F00039FF054605F0F8FF84B2204606F014F8ED
:10070000294606F06FF8042106F01DF905F0ECFF0C
:100710004FF6FF7101EA04110A181B48816941F084
:1007200004018161816941F48041816117490B684D
:1007300023F47F630B600B6843F40B630B60C168A9
:1007400041F48041C160C16821F48041C1600A4820
:1007500008300280001D018842F20C021143018022
:10076000018841F020010180BDE87040022325226C
:1007700003210846FFF796BE003801400400002020
:100780005401002040420F000010024004080140C4
:100790001348816941F008018161816941F040019C
:1007A00081611048016821F470010160016841F421
:1007B000401101600B480C30016841F020010160DC
:1007C0000948016821F470010160016841F4401199
:1007D000016005480C30016841F02001016070475C
:1007E00000100240000C01400018014028B101280F
:1007F00005D10121EF2000F0EEBB0021FAE77047A0
:1008000010B500F055FC0520FFF723FE00F050FC6A
:100810000520FFF71EFE0020FFF7E8FF002000F094
:10082000F7FB202801D0002010BD012010BD70B5BD
:1008300000F0D4FAFFF7E4FF002813D00020FFF700
:10084000D5FFFC4D002405EB4400417815F8140059
:1008500000F0C1FB641CE4B2332CF4D30020FFF79A
:10086000C5FF012070BD1CB5F3491F204FF49672DF
:1008700008804FF6FF7000901346AA211E2004F056
:1008800078F81024EDA0CDE900402346C822AA2123
:100890001E2004F086FAEFA0CDE900401023C82204
:1008A000BE211E2004F07DFA1CBD2DE9FE4F00255F
:1008B00028460295FFF79AFFDE4E0024AC3606EB81
:1008C0004400417816F8140000F085FB641CE4B283
:1008D0001E2CF4D30020FFF789FFD74F1F204FF4C1
:1008E000967A38804FF6FF700090002652465346A5
:1008F000AA211E2004F03DF81024DCA0CDE9004020
:100900002346C822B4211E2004F04BFACDA0CDE925
:1009100000401023C822D2211E2004F042FA4FF4D6
:100920007840DFF8609338801824002000F0F2FB54
:10093000042806D002AA0221432000F08BFB50B10C
:100940005EE00021412000F046FB0021422000F043
:1009500042FBBDE8FE8FBDF80800002850D01028EB
:1009600079D008DC012810D0022819D0042858D0EA
:10097000082845D160E0202878D0402869D0802818
:1009800068D0B0F5807F3BD191E0BFA0CDE90040B9
:100990001023C822FA216E2004F003FABEA009E059
:1009A000BFA0CDE900401023C822FA21642004F042
:1009B000F8F9BFA005F0CCF9BF4FC7F8945150200B
:1009C00007F5CA77FFF745FD4FF00108C7F800802B
:1009D0005020FFF73EFD3D605020FFF73AFDC7F87D
:1009E00000805020FFF735FD5046FFF732FDB3A0E1
:1009F000CDE900401023C822FA21282004F0D1F9C3
:100A00003220FFF726FD761CF6B2052E8DD1D9F8DF
:100A100094014946002855D00020C1F894010026D1
:100A200083E7ADA0CDE900401023C822FA2164205D
:100A300004F0B7F9ACA0BDE7ADA0CDE900401023AC
:100A4000C822FA21642004F0ACF9ADA0B2E702E0BC
:100A50000CE016E020E0ACA0CDE900401023C82255
:100A6000FA21502004F09DF9ABA0A3E7ADA0CDE999
:100A700000401023C822FA21502004F092F9ADA0C2
:100A800098E7AFA0CDE900401023C822FA21462004
:100A900004F087F9AEA08DE7B0A0CDE900401023A7
:100AA000C822FA21322004F07CF9B0A082E7B3A07A
:100AB000CDE900401023C822FA21642004F071F926
:100AC000B2A077E70120A8E72DE9FC4700252846DA
:100AD000FFF78CFE574E0024663606EB4400417843
:100AE00016F8140000F077FA641CE4B2232CF4D357
:100AF0000020FFF77BFE504F1F204FF49672388086
:100B00004FF6FF70009000241346AA211E2003F028
:100B100030FF102655A0CDE900603346C822B4212D
:100B20001E2004F03EF99BA0CDE900601023C822EE
:100B3000D2211E2004F035F998A0CDE900601023E1
:100B4000C822F0211E2004F02CF997A0CDE9006006
:100B50001023C822F021A02004F023F94FF478409C
:100B6000DFF820A13880002000F0D4FA04283BD020
:100B7000B02000F04DFA8146B12000F049FA064657
:100B8000B22000F045FA182700F00F00CDE90075FB
:100B900046EA00264FF4877803234A46414632202E
:100BA00004F0AFF8CDE900750323324641469820A2
:100BB00004F0A7F849467EA005F0CAF8314682A0A5
:100BC00005F0C6F86420FFF744FC641CE4B2052C71
:100BD000C9D1DAF89401514620B10020C1F894013E
:100BE0000024C0E70120F9E7BDE8FC870024FFF7F7
:100BF0003AFE244D002000F08DFA50B1012804D0B7
:100C0000022804D1FFF751FE01E0FFF75DFFFFF777
:100C10002AFE3220FFF71DFC641CE4B2052CE9D14A
:100C2000D5F8940120B10020C5F894010024E1E733
:100C3000D2E00000C26900080E0000204B45593187
:100C40003A2020204765737275726520746573744D
:100C5000000000004B4559303A202020507320748A
:100C60006573742020202020000000004B45595F50
:100C700055503A204578697420746865207465730E
:100C800074000000008021425550202020202020A8
:100C9000202020200000000055700D0A00000000F8
:100CA000446F776D202020202020202000000000AD
:100CB000446F776D0D0A00000000234220202020A1
:100CC0002020202020202020202020202020202024
:100CD00020202020000000004C6566742020202089
:100CE00020202020000000004C6566740D0A0000E2
:100CF0005269676874202020202020200000000016
:100D000052696768740D0A00466F727761726420D9
:100D10002020202000000000466F72776172640D71
:100D20000A0000004261636B77617264202020201A
:100D3000000000004261636B776172640D0A00007D
:100D4000436C6F636B77697365202020000000009F
:100D5000436C6F636B776973650D0A00416E74694C
:100D6000436C6F636B77697365000000416E746953
:100D7000436C6F636B776973650D0A005761766525
:100D800020202020202020202000000057617665B0
:100D90000D0A000050732074657374004272696715
:100DA00068746E657373000053697A650000000013
:100DB0006F626A5F6272696768746E6573733A2006
:100DC00025640D0A000000006F626A5F73697A652E
:100DD0003A2025640D0A0000012025E7B948816901
:100DE00041F008018161B848016821F47F41016048
:100DF000016841F44C510160B3480830016841F486
:100E000040610160704770B5AF48016821F47041DE
:100E10000160016841F440510160AC4C0120C4F80C
:100E2000AC01C4F8A801042004F5D474FFF7FFFA5C
:100E3000002565600420FFF7FAFA256070BDA2481E
:100E400010B5016821F470410160016841F440511E
:100E500001609E4C0020C4F8A801C4F8AC01042035
:100E600004F5D474FFF7E3FA012020606060BDE868
:100E700010400420FFF7DBBA70B5934800240168E6
:100E800021F470410160016841F4004101608F4D1F
:100E90000126C5F8AC610320FFF7C9FAC5F8A861BF
:100EA0000320FFF7C4FA07E0641CE4B2FA2C03D96C
:100EB000FFF7C5FF012070BDD5F82C010028F3D144
:100EC000C5F8A80170BD2DE9F04105467E480168CE
:100ED00021F470410160016841F4405101607B4E92
:100EE0000027C6F8A8713C464FF00108280602D535
:100EF000C6F8AC8101E0C6F8AC716806050E0520A5
:100F0000FFF795FAC6F8A8810520FFF790FAC6F812
:100F1000A8710520FFF78BFA641CE4B2082CE5D316
:100F2000BDE8F0812DE9F047DFF89C91824600246E
:100F3000D9F8001021F47041C9F80010D9F8001058
:100F400041F40041C9F80010604E254627464FF095
:100F50000108C6F8A8710420FFF769FAC6F8A8814D
:100F60006006040ED6F82C0108B1641CE4B204201B
:100F7000FFF75DFA6D1CEDB2082DEAD3BAF1000F50
:100F8000C6F8A871D9F80010484621F47041C9F894
:100F90000010D9F8001041F44051C9F800100FD0EA
:100FA000C6F8AC71032006F5D476FFF740FAC6F810
:100FB00000800320FFF73BFA37602046BDE8F0874A
:100FC0004546C6F8AC81022006F5D476FFF72FFA25
:100FD00035600220EEE770B50C460546FFF713FFBB
:100FE000E620FFF770FFFFF747FF18B1FFF727FF75
:100FF000012070BD2846FFF766FFFFF73DFF204642
:10100000FFF761FFFFF738FFFFF719FF002070BD02
:1010100010B50446FFF7F7FEE620FFF754FFFFF791
:101020002BFF18B1FFF70BFF002010BD2046FFF784
:101030004AFFFFF721FFFFF7E6FEE720FFF743FF38
:10104000FFF71AFF0020FFF76DFF0446FFF7F7FEDA
:10105000204610BD70B515460C460646FFF7D3FE78
:10106000E620FFF730FFFFF707FF18B1FFF7E7FEB5
:10107000012070BD3046FFF726FFFFF7FDFEFFF7AA
:10108000C2FEE720FFF71FFFFFF7F6FE08E0012C86
:101090000CD00120FFF746FF641E05F8010BA4B237
:1010A000002CF4D1FFF7CBFE002070BD0020F1E74B
:1010B00010B5FFF7A8FEE620FFF705FFBDE81040DA
:1010C000BDE6000000100240040C014000802142F7
:1010D0003348816941F004018161816941F0400137
:1010E00081613048016821F00F010160016841F021
:1010F000080101602C4801682C4A11400160016818
:101100002B4A1143016028480C30016841F01C0152
:101110000160704770B5274C274E284D012108B15A
:10112000217001E0207860B1D5F8100170B1D5F8D8
:101130000C0158B1D5F8080140B1D6F800010128DA
:1011400004D0D5F8100101281BD026E00A20FFF7B3
:1011500080F900202070D5F8100150B1D5F80C01AD
:1011600048B1D5F8080140B1D6F80001012806D0F1
:1011700013E0012070BD022070BD032070BD04206B
:1011800070BDD5F80C01012807D1D5F80801012858
:1011900003D1D6F8000100B92170002070BD000015
:1011A000001002400008014000180140FF00F0FF5D
:1011B000008808000C0000200000214200002342AB
:1011C000FE4908807047FD49891C08807047FB482C
:1011D00008B5801C0088ADF80000BDF8000008BD0F
:1011E000F64A1080901C01807047F44910B50880C1
:1011F0000520FFF71CF9BDE81040E8E7F048EF498B
:10120000008908807047ED49891C08807047C0F349
:101210004511C20AC00200EB4110104480B2704771
:10122000401EC0B2FCD270472DE9F04FE44F0B4690
:101230003A46BD880C0ADFF884B391895289A5F536
:1012400013464FEA102C0BF1020A413E1DD0A5F5C2
:10125000A646103E19D03E46BE4696F80690368801
:10126000A5F5D047A6EB0008A8F10108043F17D068
:10127000A5F5C857633F28D0A5F5AA477646103F85
:1012800051D0B9F1010F63D064E0ABF800205246B1
:10129000AAF800C0C0B2AAF80000ABF800100FE036
:1012A000B9F1010F01D11FFA88F0ABF80020050A4F
:1012B0005246AAF80050C0B2AAF80000ABF80010DD
:1012C0001480D8B21080BDE8F08FB9F1000F1BD0A8
:1012D000ABF800205246AAF800C0C0B2AAF800003D
:1012E000761E300AAAF80000F0B21080ABF80010A9
:1012F00011461480D8B21080BEF80200401E020AC7
:101300000A80C0B20880DEE71FFA88F0ABF8002040
:1013100000265246AAF80060AAF80060060AAAF859
:101320000060C0B2E1E7ABF80020AAF800C0521C90
:10133000ABF80020C0B2AAF80000ABF80010AAF881
:101340000040491CABF80010D8B2AAF80000BAE778
:101350001FFA88F001461046FFF742FFB089BDE84A
:10136000F04F19463CE7F0B5954E002425463288EB
:10137000824202D972888A4201D80020F0BDFFF76C
:1013800053FFB08849F241378C4B41F6631C45F25C
:10139000103145F21052B84208D0A0F5D04EBEF13F
:1013A000040E03D0884201D0604502D14FF02E0ECA
:1013B00006E0904202D14FF4385E01E04FF0220E79
:1013C000A3F800E0A0F51343203B03D10220401E08
:1013D000C0B2FCD2FFF7FBFEB3886345CED002203B
:1013E000401EC0B2FCD2FFF7F2FE8446B088B8427D
:1013F00003D0884201D090420CD10220401EC0B2DE
:10140000FCD2FFF7E4FE05460CF0FF004FF6FF7339
:1014100003EA0024B088A0F51343253B1FD0A0F5B4
:101420008A43353B1BD0A0F58A43313B17D0A0F54A
:101430003543053B13D0A0F54543053B0FD0B842DB
:1014400003D0884201D090420BD14FEADC204FEA12
:10145000C020A10A40EA411040EAD520F0BD604614
:10146000F0BDBDE8F0406046D1E65548534980885C
:10147000A0F51342413A13D0A0F5D042043A0FD060
:10148000A0F5A642103A0BD0A0F5C852633A07D097
:10149000A0F5AA42103A05D040F2731107209FE64A
:1014A000292001E04FF42450088070474448434904
:1014B0008088A0F51342413A12D0A0F5D042043AF8
:1014C0000ED0A0F5A642103A0AD0A0F5C852633A51
:1014D00006D0A0F5AA42103A04D0002107207FE6EA
:1014E000282001E04FF4205008807047F0B5344DBB
:1014F00000232946AA79898846F6040741F663162F
:10150000012A01D02AB11DE0B9421BD0B14202D15B
:1015100018E0B14216D1082814D2DFE800F0040622
:10152000080A0C0E101206200CE007200AE0042026
:1015300008E0052006E0012004E0002002E003208E
:1015400000E00220A1F5134C45F2103245F2105490
:10155000BCF1410C07D0B94205D0914203D0A14261
:1015600001D0B1427AD1082812D2DFE800F011048C
:1015700006080A0C0E1080230AE0402308E0C0236E
:1015800006E0202304E0602302E0A02300E0E02343
:10159000A14202D14FF4585000E03620914205D0CC
:1015A000A14203D0B14201D043F00803B94201D1B6
:1015B00043F002031946FFF713FE03E0FE07006C39
:1015C0001C020020AA88B2420AD09806288869889E
:1015D00002D5884202D303E0884201D9298068807D
:1015E000FE48811CA2426A89028021D100230B801F
:1015F000531C038000230B80931C03802B885B1EED
:101600001C0A0C80D21C0280DAB20A80AA890280ED
:1016100000230B80531C038000230B80931C03804A
:101620006B885B1E1C0A0C80D21C0280D8B212E0B0
:1016300000220A800A802A88521E130A0B80D2B226
:101640000A80AA8902800020088008806888401EDD
:10165000020A0A80C0B20880F0BDFFE7082812D253
:10166000DFE800F0040608110A0C0E1030230AE02F
:10167000102308E0202306E0382304E0282302E0BA
:10168000182300E00823BDE8F040032043F4805114
:10169000A6E500B5FFF7C8FDFFF7B0FDD048CF497C
:1016A000891C0088088000BD2DE9F04FDFF83483E5
:1016B000934642460B46B8F804500C0ADFF81CA3C8
:1016C0009189060A5289A5F513470AF10209413F9B
:1016D00019D0A5F5A647103F15D0A5F5AA47103F8C
:1016E0001CD04746A5F5C85CBE793F883F1A7F1ECF
:1016F000BCF1630C27D0A5F5D04CBCF1040C3AD05A
:10170000012E4AD04AE0AAF800204A46A9F8006013
:10171000C0B2A9F80000AAF800103AE0AAF8002028
:10172000A9F80060521CAAF80020C0B2A9F8000075
:10173000AAF80010A9F80040491CAAF80010D8B275
:10174000A9F8000033E006B9B8B2AAF80020050AEB
:101750004A46A9F80050C7B2A9F80070A9F800508D
:10176000C0B2A9F80000AAF80010A9F80040D8B249
:10177000A9F800000DE0012E00D1B8B2AAF80020AF
:10178000050A4A46A9F80050C0B2A9F80000AAF814
:1017900000101480D8B2108009E0B8B2014610469B
:1017A000FFF71EFDB8F80C001946FFF719FDB8F851
:1017B0000810AAF80010A9F800B084E5874A10B50F
:1017C000BE211180941C0521218004F052FD4FF0B0
:1017D0006632854B04F060FD04F01EFD2080012080
:1017E0002080FF20208000202080208010BD2DE957
:1017F000F04F7C492A232B24898845F2105A4FF454
:10180000305B4FF4285E4FF448754FF0F00C49F20E
:1018100041394FF4A07745F210364FF4F07280B1A1
:1018200070484FF00108494580F806800780A0F80D
:1018300002C001D0B1423ED12C2505814381848173
:1018400057E068484FF00008494580F80680A0F846
:1018500000C0478006D0A1F5D04CBCF1040C01D0EB
:10186000B1420CD12C2505814381A1F5D04384815F
:10187000043B01D0B14244D10780428041E0514550
:1018800007D1A0F808B0A0F80AE04FF42C518181EC
:101890000EE0A1F5C856633E06D022210181202129
:1018A0004181212181812CE02C210181448183818E
:1018B0000280458025E0A1F5D04CBCF1040C09D094
:1018C00051450BD1A0F808B0A0F80AE04FF42C5312
:1018D000838120E02C250581448109E0A1F5C85CC5
:1018E000BCF1630C11D022230381212343812023E7
:1018F0008381A1F5D043043B01D0B14201D10280E4
:101900004780BDE8F04F0020F0E54FF02C0CA0F828
:1019100008C04381848105804280EAE72DE9FC4FBD
:10192000044691464844401E86B2C818401E83B201
:10193000009004EB0900401EC0F3072EDFF8A4C09E
:1019400000980D46C0F3072B6046BCF804204FEA10
:10195000112881894089A2F513474FEA142A413F93
:1019600010D0A2F5A647103F0CD0A2F5D047043FF7
:1019700008D09CF8067041F6631C0197012F13D123
:10198000624511D1154F3880B81CA0F800A0E2B212
:101990000280A0F800E0F2B202803980A0F8008056
:1019A000E9B20180594626E00E4F62453F8827D1B3
:1019B000A7EB0902121B094C009B92B29BB220803C
:1019C000160AA01C0680D6B206804A44521E160A89
:1019D0000680D2B20280218008E00000FE07006C81
:1019E0000E0000201C02002066660440A0F8008063
:1019F000E9B20180190A0180D9B20180BDE8FC8FEB
:101A0000A2F5A04CBCF5A26C1FD0019801283FD0D4
:101A1000B44621462E4650204FF051094FF052084F
:101A20005327FFF7DDFB61464846FFF7D9FB3146F8
:101A30004046FFF7D5FB19463846FFF7D1FB29464C
:101A40002046BDE8FC4FFFF7EFBBFE4A1080971C15
:101A5000A7F800A000F1010CA2F800C0E4B23C809D
:101A6000841C1480A7F800E0C01C1080F0B23880FD
:101A70001180A7F80080481C1080E8B23880881CCC
:101A80001080A7F800B0C91C1180D8B23880B5E723
:101A9000B81B401E86B2381B9C46401E294683B2A6
:101AA000B9E72DE9F043E84F0646002438887D88E1
:101AB0004543B888A0F5D041043902D1B87901284E
:101AC00008D000210846FFF7AFFBFFF797FBDD4882
:101AD000801C15E00020B8714FF02A09A7F80A9081
:101AE0004FF02B08A7F80C800146FFF79DFB012063
:101AF000B871A7F80A80A7F80C90E6E70680641C86
:101B0000AC42FBD3BDE8F0832DE9F05FCF484069DC
:101B1000CE4940F480704861886940F008008861CF
:101B2000886940F020008861886940F04000886141
:101B3000886940F480708861C5480068C44920F015
:101B40000F000860086840F003000860C1480168A1
:101B5000C14A114001600168C04A11430160001F81
:101B6000016801F0FF210160016841F0BB110160D3
:101B7000BB48016800210160026842F0BB3202608C
:101B8000001F026822F070420260026842F0304298
:101B90000260B448426822F470224260426842F413
:101BA00030224260026822F00F020260026842F0B6
:101BB0000B0202604FF020408161C161C0F81C112E
:101BC000816941F480518161816941F48041816181
:101BD000816941F010018161C169C161C16941F050
:101BE0000101C161C16941F47061C161D0F81C118A
:101BF000C0F81C11D0F81C11C0F81C11D0F81C1131
:101C000041F44071C0F81C11816941F0010181610A
:101C10003220FEF71EFC0020FFF7E7FA8A4D894CC0
:101C200049F24137A88046F6040945F2103A45F2D8
:101C300010564FF6FF78FF2804D3404502D0B0F588
:101C4000134F70D1D3202080FFF7C1FAA880FFF78F
:101C5000BEFAA880FFF7BBFA08EA00204146A88038
:101C6000FFF7B5FAAA881043A880B8425BD0BF201E
:101C70002080FFF7ACFAA880FFF7A9FAA880FFF749
:101C8000A6FAA880FFF7A3FA01EA0020A880FFF7D0
:101C90009EFAAA881043A880484544D0D4202080CA
:101CA000FFF795FAA880FFF792FAA880FFF78FFA5E
:101CB00001EA0020A880FFF78AFAAA881043A880CA
:101CC000504530D04FF45A402080FFF780FAA8806A
:101CD0004FF45B402080FFF77AFA01EA0020A880E9
:101CE0004FF45C402080FFF772FAAA881043A88066
:101CF000B0F5004F7ED0B04215D0A1202080FFF774
:101D000066FAA880FFF763FA01EA0020A880FFF7CF
:101D10005EFAA9880843A0F5AE41A880613902D1D6
:101D200041F66310A880A9884FA004F011F8A88894
:101D3000444DAD1CB8427DD1CF20208000202880AA
:101D4000C120288030202880ED2020806420288039
:101D5000032028801220288081202880E8202080ED
:101D600085202880102028807A202880CB20208081
:101D7000392028802C2028800020288034202880AA
:101D800002202880F720208020202880EA20208040
:101D9000002028802880C02020801B202880C1208F
:101DA000208001202880C5202080302028802880A5
:101DB000C7202080B7202880362020804820288017
:101DC0003A20208055202880B120208000202880C3
:101DD0001A202880B62020800A202880A22028806F
:101DE000F2202080002028802620208001202880CA
:101DF000E02000E06BE020800F2028802A2028804F
:101E000028202880082028800E202880082028806C
:101E100054202880A9202880432028800A20288058
:101E20000F20288000202880288028802880E1201A
:101E3000208000E04DE00020288015202880172019
:101E4000288019E0FE07006C1C02002000100240F0
:101E5000000C01400414014000F0FF00BB0B00BB6C
:101E60000418014000200140204C43442049443ADA
:101E700025780D0A00000000072028801120288006
:101E8000062028802B202880562028803C2028806F
:101E900005202880102028800F2028803F202880BF
:101EA00028800F2028802B20208000202880288058
:101EB000012028803F2028802A20208000202880A0
:101EC00028802880EF202880112020806EE0AE80BE
:101ED00029E7484571D1112020801420FEF7B9FA76
:101EE000D020208007202880422028801D202880A4
:101EF000D1202080002028801A20288009202880D6
:101F0000D22020800120288022202880C02020800C
:101F1000102028803B202880002028800220288054
:101F200011202880C520208003202880C820208000
:101F30000020288025202880212028800520288036
:101F4000002028800A2028806520288025202880DD
:101F500077202880502028800F202880002028808B
:101F6000F820208001202880FE202080002028806A
:101F700002202880202020803620208008202880F1
:101F80003A202080552028802B2020800020288087
:101F90002880012028803F2028802A2020800020BF
:101FA0002880288001202880DF2028807820FEF7E4
:101FB00050FA292001F02EBCFFE750457ED1ED20DC
:101FC000208001202880FE202880EE202080DE2036
:101FD000288021202880F120208001202880DF20F7
:101FE000208010202880C42020808F202880C620B8
:101FF000208000202880E220288028802880BF20A0
:102000002080AA202880B02020800D202880002059
:1020100028800D2028800020288011202880002082
:102020002880192028800020288021202880002056
:1020300028802D202880002028803D202880002016
:1020400028805D202880002028805D2028800020B6
:102050002880B120208080202880002028808B20AC
:102060002880002028809620288000202880B22008
:1020700020800020288028800220288000202880BE
:102080000320288000202880B32020800020288082
:102090002880288028802880288028802880288000
:1020A00028802880288028802880288028802880F0
:1020B0002880288028802880288000E0FEE328806F
:1020C0002880B42020808B20288000202880962023
:1020D000288000202880A120288000202880B5208A
:1020E00020800220288000202880032028800020D3
:1020F00028800420288000202880B620208000200E
:1021000028802880B72020800020288028803F2039
:102110002880002028805E202880002028806420DD
:102120002880002028808C20288000202880AC2057
:10213000288000202880DC20288000202880702033
:102140002880002028809020288000202880EB20F4
:10215000288000202880DC20288000202880B820CB
:1021600020800020288028802880288028802880BF
:1021700028802880BA2020802420288000202880E1
:1021800028802880C12020802020288000202880CE
:102190005420288000202880FF20288000202880CC
:1021A000C22020800A202880002028800420288047
:1021B00000202880C32020803C2028800020288008
:1021C0003A2028800020288039202880002028807C
:1021D00037202880002028803C202880002028806C
:1021E0003620288000202880322028800020288067
:1021F0002F202880002028802C2028800020288064
:10220000292028800020288026202880002028805F
:102210002420288000202880242028800020288056
:1022200023202880002028803C202880002028802F
:102230003620288000202880322028800020288016
:102240002F202880002028802C2028800020288013
:10225000292028800020288026202880002028800F
:102260002420288000202880242028800020288006
:102270002320288000202880C420208062202880FD
:1022800000202880052028800020288084202880A5
:1022900000202880F0202880002028801820288016
:1022A00000202880A4202880002028801820288052
:1022B0000020288050202880002028800C202880A2
:1022C0000020288017202880002028809520288042
:1022D00000202880F320288000202880E620288005
:1022E00000202880C52020803220288000202880DF
:1022F0004420288000202880652028800020288015
:1023000076202880002028808820288000202880AF
:10231000C6202080202028800020288017202880A8
:10232000002028800120288000202880C7202080CD
:1023300000202880288028802880C8202080002035
:102340002880288028802880C9202080002028809C
:10235000288028802880288028802880288028803D
:102360002880288028802880288028802880E020D5
:10237000208016202880002028801C202880002013
:1023800028802120288000202880362028800020D6
:102390002880462028800020288052202880002085
:1023A000288064202880002028807A20288000202F
:1023B00028808B20288000202880992028800020D9
:1023C0002880A820288000202880B920288000208C
:1023D0002880C420288000202880CA20288000204F
:1023E0002880D220288000202880D9202880002022
:1023F0002880E020288000202880F32028800020EA
:102400002880E120208016202880002028801C20A1
:102410002880002028802220288000202880362044
:1024200028800020288045202880002028805220F5
:1024300028800020288064202880002028807A209E
:102440002880002028808B20288000202880992048
:10245000288000202880A820288000202880B920FB
:10246000288000202880C420288000202880CA20BE
:10247000288000202880D220288000202880D82092
:10248000288000202880E020288000202880F32059
:10249000288000202880E22020800520288000203D
:1024A00028800B202880002028801B2028800020E6
:1024B0002880342028800020288044202880002084
:1024C00028804F202880002028806120288000203C
:1024D00028807920288000202880882028800020DB
:1024E00028809720288000202880A620288000208F
:1024F0002880B720288000202880C2202880002043
:102500002880C720288000202880D1202880002013
:102510002880D620288000202880DD2028800020E8
:102520002880F320288000202880E32020800520B8
:102530002880002028800A202880002028801C2055
:1025400028800020288033202880002028804420F4
:1025500028800020288050202880002028806220A9
:10256000288000202880782028800020288088204B
:102570002880002028809720288000202880A620FE
:10258000288000202880B720288000202880C220B2
:10259000288000202880C720288000202880D12083
:1025A000288000202880D520288000202880DD2059
:1025B000288000202880F320288000202880E42024
:1025C00020800120288000202880012028800020F1
:1025D000288002202880002028802A2028800020AF
:1025E00028803C202880002028804B202880002044
:1025F00028805D20288000202880742028800020EA
:102600002880842028800020288093202880002093
:102610002880A220288000202880B3202880002045
:102620002880BE20288000202880C4202880002008
:102630002880CD20288000202880D32028800020DA
:102640002880DD20288000202880F320288000209A
:102650002880E5202080002028802880288028806D
:10266000022028800020288029202880002028801F
:102670003C202880002028804B20288000202880B3
:102680005D20288000202880742028800020288059
:102690008420288000202880932028800020288003
:1026A000A220288000202880B320288000202880B5
:1026B000BE20288000202880C42028800020288078
:1026C000CD20288000202880D3202880002028804A
:1026D000DC20288000202880F3202880002028800B
:1026E000E6202080112028800020288034202880A7
:1026F00000202880562028800020288076202880EE
:1027000000202880772028800020288066202880CC
:102710000020288088202880002028809920288078
:1027200000202880BB202880002028809920288035
:1027300000202880662028800020288055202880BE
:1027400000202880552028800020288045202880CF
:1027500000202880432028800020288044202880D2
:1027600000202880E7202080322028800020288038
:10277000552028800020288076202880002028806E
:10278000662028800020288067202880002028805C
:10279000672028800020288087202880002028802B
:1027A0009920288000202880BB20288000202880B5
:1027B00099202880002028807720288000202880E9
:1027C000442028800020288056202880002028804F
:1027D0002320288000202880332028800020288083
:1027E0004520288000202880E820208000202880A4
:1027F0002880992028800020288087202880002099
:1028000028808820288000202880772028800020A9
:1028100028806620288000202880882028800020AA
:102820002880AA20288000202880BB202880002023
:102830002880992028800020288066202880002079
:1028400028805520288000202880552028800020BE
:1028500028804420288000202880442028800020D0
:1028600028805520288000202880E9202080AA2068
:10287000288000202880288028802080AA20288086
:10288000CF20208000202880288028802880288051
:1028900028802880288028802880288028802880F8
:1028A0002880288028802880F02020800020288010
:1028B0005020288000202880288000E02BE02880FD
:1028C000F320208000202880F92020800620288006
:1028D0001020288029202880002028803A2020806D
:1028E00055202880112020806420FDF7B2FD29208A
:1028F0002080352020800020288051202080FF204B
:102900002880532020802C20288055202080822061
:1029100028802C20FDE3B0427ED14FF47043552136
:102920001846FEF75DFC4FF20105AA212846FEF786
:1029300057FC6E1C52213046FEF752FCAF1C08219A
:102940003846FEF74DFC4FF2040C01216046FEF7BD
:1029500047FC0D214FF43040FEF742FC0D214BF2B5
:102960000100FEF73DFC0D214BF20200FEF738FCA2
:102970004FF4364934214846FEF732FC34214BF2FD
:102980000160FEF72DFC34214BF20260FEF728FCBB
:102990004FF4314A0D215046FEF722FC4BF2011B49
:1029A0000D215846FEF71CFC0D214BF20210FEF7DC
:1029B00017FC34214FF43740FEF712FC34214BF260
:1029C0000170FEF70DFC34214BF20270FEF708FC9B
:1029D00000214FF43240FEF703FC00214BF20120AE
:1029E000FEF7FEFB00214BF20220FEF7F9FB24214B
:1029F0004FF43840FEF7F4FB24214BF60100FEF7BC
:102A0000EFFB24214BF60200FEF7EAFB01214FF415
:102A10003F40FEF7E5FB00E0FEE30F214FF43340BB
:102A2000FEF7DEFB0F214BF20130FEF7D9FB0F2141
:102A30004BF20230FEF7D4FB34214FF43940FEF75D
:102A4000CFFB34214BF60110FEF7CAFB34214BF6C5
:102A50000210FEF7C5FB08214FF43540FEF7C0FB1E
:102A600008214BF20150FEF7BBFB08214BF202504C
:102A7000FEF7B6FB03214FF44240FEF7B1FB2421E1
:102A80004FF43A40FEF7ACFB24214BF60120FEF751
:102A9000A7FB24214BF60220FEF7A2FB00214FF4F6
:102AA0003C40FEF79DFB78214BF60140FEF798FB7A
:102AB00000214BF60240FEF793FB00214FF43D400E
:102AC000FEF78EFB78214BF60150FEF789FB0021C3
:102AD0004BF60250FEF784FB00214FF43E40FEF718
:102AE0007FFB64214BF60160FEF77AFB00214FF477
:102AF0005140FEF775FB33214DF20110FEF770FBDC
:102B000000214DF20210FEF76BFB34214DF2031051
:102B1000FEF766FB00214DF20410FEF761FB3A213F
:102B20004DF20510FEF75CFB00214DF20610FEF79A
:102B300057FB4A214DF20710FEF752FB00214DF2E0
:102B40000810FEF74DFB5C214DF20910FEF748FB23
:102B500000214DF20A10FEF743FB81214DF20B10CC
:102B6000FEF73EFB00214DF20C10FEF739FBA621CB
:102B70004DF20D10FEF734FB00214DF20E10FEF762
:102B80002FFBE5214DF20F10FEF72AFB01214DF23C
:102B90001010FEF725FB13214DF21110FEF720FB5C
:102BA00001214DF21210FEF71BFB54214DF21310C0
:102BB000FEF716FB01214DF21410FEF711FB8221E6
:102BC0004DF21510FEF70CFB01214DF21610FEF729
:102BD00007FBCA214DF21710FEF702FB02214DF24E
:102BE0001810FEF7FDFA00214DF21910FEF7F8FA61
:102BF00002214DF21A10FEF7F3FA01214DF21B10DB
:102C0000FEF7EEFA02214DF21C10FEF7E9FA34212C
:102C10004DF21D10FEF7E4FA02214DF21E10FEF7F0
:102C2000DFFA67214DF21F10FEF7DAFA02214DF2AA
:102C30002010FEF7D5FA84214DF22110FEF7D0FACC
:102C400002214DF22210FEF7CBFAA4214DF22310FF
:102C5000FEF7C6FA02214DF22410FEF7C1FAB721A1
:102C60004DF22510FEF7BCFA02214DF22610FEF7B8
:102C7000B7FACF214DF22710FEF7B2FA02214DF23A
:102C80002810FEF7ADFADE214DF22910FEF7A8FA62
:102C900002214DF22A10FEF7A3FAF2214DF22B1079
:102CA000FEF79EFA02214DF22C10FEF799FAFE2152
:102CB0004DF22D10FEF794FA03214DF22E10FEF77F
:102CC0008FFA10214DF22F10FEF78AFA03214DF2F0
:102CD0003010FEF785FA33214DF23110FEF780FAFD
:102CE00003214DF23210FEF77BFA6D214DF23310C5
:102CF000FEF776FA00214FF45240FEF771FA3321C5
:102D00004DF20120FEF76CFA00214DF20220FEF791
:102D100067FA34214DF20320FEF762FA00214DF2EA
:102D20000420FEF75DFA3A214DF20520FEF758FA2D
:102D300000214DF20620FEF753FA4A214DF20720FA
:102D4000FEF74EFA00214DF20820FEF749FA5C2109
:102D50004DF20920FEF744FA00214DF20A20FEF759
:102D60003FFA81214DF20B20FEF73AFA00214DF295
:102D70000C20FEF735FAA6214DF20D20FEF730FAB1
:102D800000214DF20E20FEF72BFAE5214DF20F2027
:102D9000FEF726FA01214DF21020FEF721FA132149
:102DA0004DF21120FEF71CFA01214DF21220FEF720
:102DB00017FA54214DF21320FEF712FA01214DF2B9
:102DC0001420FEF70DFA82214DF21520FEF708FAC5
:102DD00001214DF21620FEF703FACA214DF2172009
:102DE000FEF7FEF902214DF21820FEF7F9F9002155
:102DF0004DF21920FEF7F4F902214DF21A20FEF7E8
:102E0000EFF901214DF21B20FEF7EAF902214DF204
:102E10001C20FEF7E5F934214DF21D20FEF7E0F904
:102E200002214DF21E20FEF7DBF967214DF21F2033
:102E3000FEF7D6F902214DF22020FEF7D1F98421C8
:102E40004DF22120FEF7CCF902214DF22220FEF7AF
:102E5000C7F9A4214DF22320FEF7C2F902214DF259
:102E60002420FEF7BDF9B7214DF22520FEF7B8F971
:102E700002214DF22620FEF7B3F9CF214DF2272093
:102E8000FEF7AEF902214DF22820FEF7A9F9DE2166
:102E90004DF22920FEF7A4F902214DF22A20FEF777
:102EA0009FF9F2214DF22B20FEF79AF902214DF203
:102EB0002C20FEF795F9FE214DF22D20FEF790F91A
:102EC00003214DF22E20FEF78BF910214DF22F2019
:102ED000FEF786F903214DF23020FEF781F9332108
:102EE0004DF23120FEF77CF903214DF23220FEF73E
:102EF00077F96D214DF23320FEF772F900214FF47E
:102F00005340FEF76DF933214DF20130FEF768F9B9
:102F100000214DF20230FEF763F934214DF2033007
:102F2000FEF75EF900214DF20430FEF759F93A211F
:102F30004DF20530FEF754F900214DF20630FEF750
:102F40004FF94A214DF20730FEF74AF900214DF2C0
:102F50000830FEF745F95C214DF20930FEF740F9E3
:102F600000214DF20A30FEF73BF981214DF20B3082
:102F7000FEF736F900214DF20C30FEF731F9A621AB
:102F80004DF20D30FEF72CF900214DF20E30FEF718
:102F900027F9E5214DF20F30FEF722F901214DF21C
:102FA0001030FEF71DF913214DF21130FEF718F91C
:102FB00001214DF21230FEF713F954214DF2133076
:102FC000FEF70EF901214DF21430FEF709F98221C6
:102FD0004DF21530FEF704F901214DF21630FEF7DF
:102FE000FFF8CA214DF21730FEF7FAF802214DF230
:102FF0001830FEF7F5F800214DF21930FEF7F0F821
:1030000002214DF21A30FEF7EBF801214DF21B3090
:10301000FEF7E6F802214DF21C30FEF7E1F834210C
:103020004DF21D30FEF7DCF802214DF21E30FEF7A6
:10303000D7F867214DF21F30FEF7D2F802214DF28A
:103040002030FEF7CDF884214DF22130FEF7C8F88C
:1030500002214DF22230FEF7C3F8A4214DF22330B5
:10306000FEF7BEF802214DF22430FEF7B9F8B72181
:103070004DF22530FEF7B4F802214DF22630FEF76E
:10308000AFF8CF214DF22730FEF7AAF802214DF21A
:103090002830FEF7A5F8DE214DF22930FEF7A0F822
:1030A00002214DF22A30FEF79BF8F2214DF22B302F
:1030B000FEF796F802214DF22C30FEF791F8FE2132
:1030C0004DF22D30FEF78CF803214DF22E30FEF735
:1030D00087F810214DF22F30FEF782F803214DF2D0
:1030E0003030FEF77DF833214DF23130FEF778F8BD
:1030F00003214DF23230FEF773F86D214DF233307B
:10310000FEF76EF800214FF45440FEF769F83321C2
:1031100000E07FE34DF20140FEF762F800214DF23E
:103120000240FEF75DF834214DF20340FEF758F8F7
:1031300000214DF20440FEF753F83A214DF20540CC
:10314000FEF74EF800214DF20640FEF749F84A21FD
:103150004DF20740FEF744F800214DF20840FEF71B
:103160003FF85C214DF20940FEF73AF800214DF29C
:103170000A40FEF735F881214DF20B40FEF730F89A
:1031800000214DF20C40FEF72BF8A6214DF20D4028
:10319000FEF726F800214DF20E40FEF721F8E5215A
:1031A0004DF20F40FEF71CF801214DF21040FEF7E2
:1031B00017F813214DF21140FEF712F801214DF2DC
:1031C0001240FEF70DF854214DF21340FEF708F8B7
:1031D00001214DF21440FEF703F882214DF2154013
:1031E000FDF7FEFF01214DF21640FDF7F9FFCA2160
:1031F0004DF21740FDF7F4FF02214DF21840FDF7A4
:10320000EFFF00214DF21940FDF7EAFF02214DF2D8
:103210001A40FDF7E5FF00E0FEE201214DF21B4000
:10322000FDF7DEFF02214DF21C40FDF7D9FF3421EE
:103230004DF21D40FDF7D4FF02214DF21E40FDF777
:10324000CFFF67214DF21F40FDF7CAFF02214DF26B
:103250002040FDF7C5FF84214DF22140FDF7C0FF5E
:1032600002214DF22240FDF7BBFFA4214DF2234085
:10327000FDF7B6FF02214DF22440FDF7B1FFB72163
:103280004DF22540FDF7ACFF02214DF22640FDF73F
:10329000A7FFCF214DF22740FDF7A2FF02214DF2FB
:1032A0002840FDF79DFFDE214DF22940FDF798FFF4
:1032B00002214DF22A40FDF793FFF2214DF22B40FF
:1032C000FDF78EFF02214DF22C40FDF789FFFE2114
:1032D0004DF22D40FDF784FF03214DF22E40FDF706
:1032E0007FFF10214DF22F40FDF77AFF03214DF2B1
:1032F0003040FDF775FF33214DF23140FDF770FF8F
:1033000003214DF23240FDF76BFF6D214DF233404A
:10331000FDF766FF00214FF45540FDF761FF3321B3
:103320004DF20150FDF75CFF00214DF20250FDF718
:1033300057FF34214DF20350FDF752FF00214DF2AB
:103340000450FDF74DFF3A214DF20550FDF748FFBF
:1033500000214DF20650FDF743FF4A214DF2075080
:10336000FDF73EFF00214DF20850FDF739FF5C21CB
:103370004DF20950FDF734FF00214DF20A50FDF7E0
:103380002FFF81214DF20B50FDF72AFF00214DF256
:103390000C50FDF725FFA6214DF20D50FDF720FF43
:1033A00000214DF20E50FDF71BFFE5214DF20F50AD
:1033B000FDF716FF01214DF21050FDF711FF13210B
:1033C0004DF21150FDF70CFF01214DF21250FDF7A7
:1033D00007FF54214DF21350FDF702FF01214DF27A
:1033E0001450FDF7FDFE82214DF21550FDF7F8FE59
:1033F00001214DF21650FDF7F3FECA214DF2175090
:10340000FDF7EEFE02214DF21850FDF7E9FE002116
:103410004DF21950FDF7E4FE02214DF21A50FDF76E
:10342000DFFE01214DF21B50FDF7DAFE02214DF2C5
:103430001C50FDF7D5FE34214DF21D50FDF7D0FE96
:1034400002214DF21E50FDF7CBFE67214DF21F50B9
:10345000FDF7C6FE02214DF22050FDF7C1FE84218A
:103460004DF22150FDF7BCFE02214DF22250FDF736
:10347000B7FEA4214DF22350FDF7B2FE02214DF21A
:103480002450FDF7ADFEB7214DF22550FDF7A8FE03
:1034900002214DF22650FDF7A3FECF214DF2275019
:1034A000FDF79EFE02214DF22850FDF799FEDE2128
:1034B0004DF22950FDF794FE02214DF22A50FDF7FE
:1034C0008FFEF2214DF22B50FDF78AFE02214DF2C4
:1034D0002C50FDF785FEFE214DF22D50FDF780FEAC
:1034E00003214DF22E50FDF77BFE10214DF22F509F
:1034F000FDF776FE03214DF23050FDF771FE3321CA
:103500004DF23150FDF76CFE03214DF23250FDF7C4
:1035100067FE6D214DF23350FDF762FE00214FF43E
:103520005640FDF75DFE33214DF20160FDF758FE78
:1035300000214DF20260FDF753FE34214DF203608D
:10354000FDF74EFE00214DF20460FDF749FE3A21E1
:103550004DF20560FDF744FE00214DF20660FDF7D7
:103560003FFE4A214DF20760FDF73AFE00214DF281
:103570000860FDF735FE5C214DF20960FDF730FE75
:1035800000214DF20A60FDF72BFE81214DF20B6008
:10359000FDF726FE00214DF20C60FDF721FEA6216D
:1035A0004DF20D60FDF71CFE00214DF20E60FDF79F
:1035B00017FEE5214DF20F60FDF712FE01214DF2DD
:1035C0001060FDF70DFE13214DF21160FDF708FEAE
:1035D00001214DF21260FDF703FE54214DF21360FC
:1035E000FDF7FEFD01214DF21460FDF7F9FD82218A
:1035F0004DF21560FDF7F4FD01214DF21660FDF767
:10360000EFFDCA214DF21760FDF7EAFD02214DF2F0
:103610001860FDF7E5FD00214DF21960FDF7E0FDB2
:1036200002214DF21A60FDF7DBFD01214DF21B6016
:10363000FDF7D6FD02214DF21C60FDF7D1FD3421CE
:103640004DF21D60FDF7CCFD02214DF21E60FDF72D
:10365000C7FD67214DF21F60FDF7C2FD02214DF24B
:103660002060FDF7BDFD84214DF22160FDF7B8FD1E
:1036700002214DF22260FDF7B3FDA4214DF223603B
:10368000FDF7AEFD02214DF22460FDF7A9FDB72143
:103690004DF22560FDF7A4FD02214DF22660FDF7F5
:1036A0009FFDCF214DF22760FDF79AFD02214DF2DB
:1036B0002860FDF795FDDE214DF22960FDF790FDB4
:1036C00002214DF22A60FDF78BFDF2214DF22B60B5
:1036D000FDF786FD02214DF22C60FDF781FDFE21F4
:1036E0004DF22D60FDF77CFD03214DF22E60FDF7BC
:1036F00077FD10214DF22F60FDF772FD03214DF291
:103700003060FDF76DFD33214DF23160FDF768FD4E
:1037100003214DF23260FDF763FD6D214DF2336000
:10372000FDF75EFD55211846FDF75AFDAA212846F2
:10373000FDF756FD52213046FDF752FD082138466F
:10374000FDF74EFD00216046FDF74AFDCC215046B5
:10375000FDF746FD00215846FDF742FD052148468C
:10376000FDF73EFD70214FF43740FDF739FD702124
:103770004BF20170FDF734FD01214FF43840FDF7A5
:103780002FFD03214BF60100FDF72AFD03214BF627
:103790000200FDF725FD03214BF60300FDF720FD98
:1037A00002214FF43C40FDF71BFD00214BF6014088
:1037B000FDF716FD00214BF60240FDF711FDD0216B
:1037C0004FF44940FDF70CFD02214CF60110FDF7C6
:1037D00007FD50214CF60210FDF702FD50214CF67A
:1037E0000310FDF7FDFC50214CF60410FDF7F8FC2A
:1037F00000214FF45450FDF7F3FC55214FF468506D
:10380000FDF7EEFC4FF4885020807820FCF70FFE87
:103810004FF424502080FCE3A0F513414FF4807650
:103820004FF4E06940F2022B4FF4274A25392ED09D
:10383000A0F5134140F2077728397CD0A0F5134159
:103840004FF4887A203977D0A0F51341313974D0FC
:10385000A0F5A841083971D0A0F5A8514FF4407ADD
:1038600005396CD0A0F53541053969D0A0F5454141
:10387000053966D0A0F58A4131397DD0A0F58A415D
:1038800035397AD0A0F5C851633977D0C3E747F608
:10389000F001E520FDF7A4FC31460120FDF7A0FC76
:1038A00049460220FDF79CFC41F230010320FDF760
:1038B00097FC00210420FDF793FC59460820FDF7F2
:1038C0008FFC00210920FDF78BFC00210A20FDF769
:1038D00087FC00210C20FDF783FC00210D20FDF763
:1038E0007FFC00210F20FDF77BFC00211020FDF75D
:1038F00077FC07211120FDF773FC00211220FDF752
:103900006FFC00211320FDF76BFC00210720FDF761
:1039100067FC41F290611020FDF762FC40F2272124
:103920001120FDF75DFC9D211220FDF759FC4FF49D
:10393000C851132006E082E03EE1E3E1B9E255E33D
:10394000FDE3FDE3FDF74CFC25212920FDF748FCB4
:103950000D212B20FDF744FC07213020FDF740FC12
:1039600040F203313120FDF73BFC03213220FDF70B
:1039700037FC40F2062102E0FEE3FEE3FEE33520E1
:10398000FDF72EFC08213620FDF72AFC40F2064107
:103990003720FDF725FC4FF441713820FDF720FC5E
:1039A00007213920FDF71CFC40F202613C20FDF7A5
:1039B00017FC08213D20FDF713FC00215020FDF7E6
:1039C0000FFCEF215120FDF70BFC00215220FDF7E9
:1039D00007FC40F23F115320FDF702FC51466020E6
:1039E000FDF7FEFB01216120FDF7FAFB00216A20B3
:1039F000FDF7F6FB00218020FDF7F2FB002181207E
:103A0000FDF7EEFB00218220FDF7EAFB0021832079
:103A1000FDF7E6FB00218420FDF7E2FB0021852075
:103A2000FDF7DEFB10219020FDF7DAFB4FF4C061BB
:103A30009220FDF7D5FB40F233110720FEE341F25F
:103A40008F01EC20FDF7CCFB41F23421EF20FDF794
:103A5000C7FB31460120FDF7C3FB49460220FDF7B5
:103A6000BFFB41F230010320FDF7BAFB0021042027
:103A7000FDF7B6FB59460820FDF7B2FB00210920EF
:103A8000FDF7AEFB00210A20FDF7AAFB01210C2067
:103A9000FDF7A6FB00210D20FDF7A2FB00210F2062
:103AA000FDF79EFB00211020FDF79AFB0721112056
:103AB000FDF796FB00211220FDF792FB0021132059
:103AC000FDF78EFB01210720FDF78AFB3220FCF772
:103AD000C0FC41F290411020FDF782FB40F227210B
:103AE0001120FDF77DFB3220FCF7B3FC8A21122068
:103AF000FDF776FB3220FCF7ACFC4FF4D0511320DD
:103B0000FDF76EFB06212920FDF76AFB0D212B2016
:103B1000FDF766FB3220FCF79CFC00212020FDF71E
:103B20005FFB00212120FDF75BFB3220FCF791FCBD
:103B300000213020FDF754FB40F204613120FDF7F5
:103B40004FFB40F205313220FDF74AFB00213520C2
:103B5000FDF746FB40F609413620FDF741FB4FF4E7
:103B600001713720FDF73CFB40F201313820FDF7B1
:103B700037FB39463920FDF733FB00213C20FDF7A8
:103B80002FFB40F60A213D20FDF72AFB3220FCF7EF
:103B900060FC00215020FDF723FBEF215120FDF7B1
:103BA0001FFB00215220FDF71BFB40F23F11532069
:103BB000FDF716FB514651E100210846FDF710FBC9
:103BC00031460120FDF70CFB49460220FDF708FBBA
:103BD00041F230010320FDF703FB00210420FDF733
:103BE000FFFA59460820FDF7FBFA00210920FDF7EE
:103BF000F7FA00210A20FDF7F3FA01210C20FDF766
:103C0000EFFA00210D20FDF7EBFA00210F20FDF760
:103C1000E7FA3220FCF71DFC40F201110720FDF706
:103C2000DFFA3220FCF715FC4FF486511020FDF727
:103C3000D7FA07211120FDF7D3FA53465146122037
:103C4000FDF7CEFA4FF430611320FDF7C9FA0021D9
:103C50002920FDF7C5FA44F210012B20FDF7C0FA28
:103C600000215020FDF7BCFAEF215120FDF7B8FAF2
:103C700000215220FDF7B4FA40F23F115320FDF726
:103C8000AFFA4FF41C516020FDF7AAFA0121612020
:103C9000FDF7A6FA00216A20FDF7A2FA0021802094
:103CA000FDF79EFA00218120FDF79AFA002182207B
:103CB000FDF796FA00218320FDF792FA0021842077
:103CC000FDF78EFA00218520FDF78AFA1021902059
:103CD000FDF786FA00219220FDF782FA0121932058
:103CE000FDF77EFA19469520FDF77AFA0021972014
:103CF000FDF776FA00219820FDF772FA40F2731171
:103D0000072086E341F21401E720FDF769FA314606
:103D10000120FDF765FA4FF400710220FDF760FA0B
:103D200041F238010320FDF75BFA59460820FDF700
:103D300057FA00210920FDF753FA00210A20FDF768
:103D40004FFA00210C20FDF74BFA00210D20FDF762
:103D500047FA00210F20FDF743FA00211020FDF75C
:103D60003FFA07211120FDF73BFA00211220FDF751
:103D700037FA00211320FDF733FAC820FCF769FB5E
:103D800041F290611020FDF72BFA40F2272111201B
:103D9000FDF726FA3220FCF75CFB0C211220FDF720
:103DA0001FFA3220FCF755FB4FF400611320FDF79A
:103DB00017FA11212920FDF713FA0B212B20FDF70B
:103DC0000FFA3220FCF745FB00212020FDF708FA0E
:103DD00040F23F1319462120FDF702FA002130205E
:103DE000FDF7FEF94FF4837421463120FDF7F8F911
:103DF00000213220FDF7F4F94FF401713520FDF771
:103E0000EFF941F20A613620FDF7EAF93946372029
:103E1000FDF7E6F921463820FDF7E2F93946392069
:103E2000FDF7DEF940F202413C20FDF7D9F940F6FA
:103E30000F413D20FDF7D4F900215020FDF7D0F9C6
:103E4000EF215120FDF7CCF900215220FDF7C8F9F0
:103E500019465320FDF7C4F94FF41C516020FDF7BB
:103E6000BFF901216120FDF7BBF900216A20FDF7B0
:103E7000B7F900218020FDF7B3F900218120FDF77B
:103E8000AFF900218220FDF7ABF900218320FDF777
:103E9000A7F900218420FDF7A3F900218520FDF773
:103EA0009FF910219020FDF79BF94FF4C0619220FB
:103EB000FEE331460120FDF793F949460220FDF764
:103EC0008FF941F230010320FDF78AF90021042027
:103ED000FDF786F940F207210820FDF781F900215E
:103EE0000920FDF77DF900210A20FDF779F900216D
:103EF0000C20FDF775F900210D20FDF771F9002167
:103F00000F20FDF76DF91420FCF7A3FA41F2B06120
:103F10001020FDF765F901211120FDF761F901215C
:103F20001720FDF75DF94FF49C711220FDF758F949
:103F30004FF400611320FDF753F909212920FDF703
:103F40004FF909212A20FDF74BF90021A420FDF7A4
:103F500047F900215020FDF743F9EF215120FDF7EB
:103F60003FF900215220FDF73BF940F23F11532069
:103F7000FDF736F94FF41C516020FDF731F90121AE
:103F80006120FDF72DF900216A20FDF729F90021B4
:103F90008020FDF725F900218120FDF721F900217E
:103FA0008220FDF71DF900218320FDF719F900217A
:103FB0008420FDF715F900218520FDF711F9132163
:103FC0009020FDF70DF900219220FDF709F903215A
:103FD0009320FDF705F951469520FDF701F940F2D0
:103FE00073110720FDF7FCF8322011E100210720B2
:103FF000FDF7F6F83220FCF72CFA4FF48E71122000
:10400000FDF7EEF80121A420FDF7EAF80F210820C2
:1040100000E07FE3FDF7E4F808210A20FDF7E0F86F
:1040200008210D20FDF7DCF839463020FDF7D8F8DF
:1040300007213120FDF7D4F840F203613220FDF76B
:10404000CFF84C4649463320FDF7CAF8594634208C
:10405000FDF7C6F802213520FDF7C2F841F60F71D1
:104060003620FDF7BDF839463720FDF7B9F80021B5
:104070003820FDF7B5F800213920FDF7B1F83946B1
:104080003A20FDF7ADF800213B20FDF7A9F8072104
:104090003C20FDF7A5F800213D20FDF7A1F83220D6
:1040A000FCF7D7F901210720FDF79AF80121172025
:1040B000FDF796F83220FCF7CCF94FF4BD511020F3
:1040C000FDF78EF840F217211120FDF789F84FF423
:1040D0008F711220FDF784F84FF470611320FDF703
:1040E0007FF800212A20FDF77BF80A212920FDF71F
:1040F00077F84FF49F711220FDF772F800215020DD
:10410000FDF76EF8EF215120FDF76AF800215220EB
:10411000FDF766F840F23F115320FDF761F84FF4C8
:104120001C516020FDF75CF801216120FDF758F873
:1041300000216A20FDF754F80021802001E06AE0A8
:1041400068E1FDF74DF800218120FDF749F80021D5
:104150008220FDF745F800218320FDF741F800217A
:104160008420FDF73DF800218520FDF739F8132163
:104170009020FDF735F802E016E2CCE273E35146F9
:104180009220FDF72DF805219320FDF729F8002155
:104190009520FDF725F800219720FDF721F8002153
:1041A0009820FDF71DF831460120FDF719F821464A
:1041B0000220FDF715F841F238010320FDF710F851
:1041C00000210420FDF70CF800210C20FDF708F871
:1041D00000210F20FDF704F800212020FDF700F852
:1041E00000212120FCF7FCFF21210720FCF7F8FF2C
:1041F0001420FCF72EF961210720FCF7F1FF1420B1
:10420000FCF727F940F273110720FCF7E9FF1420AF
:10421000FCF71FF9A1E300210846FCF7E1FF0021AC
:104220000846FCF7DDFF00210846FCF7D9FF002116
:104230000846FCF7D5FF0121A42000E0E5E0FCF7EB
:10424000CFFF1420FCF705F94FF41C5421466020E1
:10425000FCF7C6FF5D4659460820FCF7C1FF4FF446
:1042600005713020FCF7BCFF43F215713120FCF7DB
:10427000B7FF40F204613220FCF7B2FF40F616614E
:104280003320FCF7ADFF42F211213420FCF7A8FFE8
:104290004FF4A8513520FCF7A3FF48F20751362010
:1042A000FCF79EFF41F207413720FCF799FF41F2EE
:1042B00003413820FCF794FF20213920FCF790FFC0
:1042C0001A219020FCF78CFF00211020FCF788FFBA
:1042D00007211120FCF784FF00211220FCF780FF4A
:1042E00000211320FCF77CFF1420FCF7B2F84FF4F8
:1042F000E6611020FCF774FF40F237111120FCF743
:104300006FFF1420FCF7A5F84FF4DC711220FCF7C6
:1043100067FF1420FCF79DF84FF470611320FCF741
:104320005FFF80212A20FCF75BFF48212920FCF752
:1043300057FF1420FCF78DF831460120FCF750FFA1
:1043400049460220FCF74CFF41F238010320FCF7FC
:1043500047FF29460820FCF743FF00210A20FCF70D
:104360003FFF00210C20FCF73BFF00210D20FCF754
:1043700037FF30210E20FCF733FF00215020FCF7DF
:104380002FFFEF215120FCF72BFF00215220FCF7DB
:1043900027FF40F23F115320FCF722FF2146602007
:1043A000FCF71EFF01216120FCF71AFF00216A20A3
:1043B000FCF716FF11219020FCF712FF4FF4C061AB
:1043C0009220FCF70DFF40F202419320FCF708FF1A
:1043D00002219420FCF704FF1420FCF73AF8012195
:1043E0000720FCF7FDFE1420FCF733F861210720BD
:1043F000FCF7F6FE40F273110720FCF7F1FE0021F6
:104400002020FCF7EDFE00212120FCF7E9FE22210F
:1044100000207DE100210846FCF7E2FE002108466D
:10442000FCF7DEFE1420FCF714F800210846FCF728
:10443000D7FE00210846FCF7D3FE00210846FCF712
:10444000CFFE00210846FCF7CBFE0121A420FCF79B
:10445000C7FE1420FBF7FDFF4FF41C516020FCF752
:10446000BFFE40F606010820FCF7BAFE40F20373D7
:1044700019463020FCF7B4FE01213120FCF7B0FED4
:1044800004213220FCF7ACFE4FF481713320FCF79D
:10449000A7FE544651463420FCF7A2FE40F2031119
:1044A0003520FCF79DFE1F213620FCF799FE1946AA
:1044B0003720FCF795FE01213820FCF791FE0421FE
:1044C0003920FCF78DFE15219020FCF789FE4FF472
:1044D00082611020FCF784FE40F247211120FCF796
:1044E0007FFE4FF4DE711220FCF77AFE4FF460611C
:1044F0001320FCF775FE7820FBF7ABFF3146012057
:10450000FCF76EFE4FF400710220FCF769FE41F2E9
:1045100030010320FCF764FE08210A20FCF760FE4E
:1045200000210C20FCF75CFE20210E20FCF758FE39
:1045300000210F20FCF754FE00212020FCF750FE44
:1045400000212120FCF74CFE3D212A20FCF748FEEB
:104550001420FBF77EFF2D212920FCF741FE0021CE
:104560005020FCF73DFE4DF2EF015120FCF738FEE4
:1045700000215220FCF734FE40F23F115320FCF79B
:104580002FFE00216120FCF72BFE00216A20FCF7A2
:1045900027FE21469220FCF723FE05219320FCF7FD
:1045A0001FFE3146FFF7ACBB01210020FCF718FECF
:1045B0000A20FBF74EFF41F228611020FCF710FEA5
:1045C0000E211220FCF70CFE40F639211320FCF7D7
:1045D00007FE0A20FBF73DFF40211120FCF700FEFB
:1045E00050211520FCF7FCFD0A20FBF732FF1E21AD
:1045F0001220FCF7F5FD0A20FBF72BFF4FF4B15119
:104600001020FCF7EDFD42F639211320FCF7E8FD00
:104610000A20FBF71EFF31460120FCF7E1FD514661
:104620000220FCF7DDFD41F238010320FCF7D8FD44
:1046300059460820FCF7D4FD08210A20FCF7D0FDDC
:1046400000213020FCF7CCFD40F202413120FCF784
:10465000C7FD4FF483713220FCF7C2FD40F20351D5
:104660003320FCF7BDFD4FF482713420FCF7B8FD18
:1046700040F201313520FCF7B3FD39463620FCF716
:10468000AFFD40F205313720FCF7AAFD4FF402716F
:104690003820FCF7A5FD40F60B713920FCF7A0FD92
:1046A00002214120FCF79CFD4FF41C51602000E0EA
:1046B000D4E0FCF795FD01216120FCF791FD4FF45A
:1046C00004719020FCF78CFD4FF485719220FCF76B
:1046D00087FD04219320FCF783FD3146A020FCF7E1
:1046E0007FFD01210720FCF77BFD21210720FCF73E
:1046F00077FD23210720FCF773FD33210720FCF70A
:104700006FFD40F233110720FCF76AFD0021A02065
:10471000FCF766FD21E130211520FCF761FD102139
:104720009A20FCF75DFD20211120FCF759FD43F292
:1047300028411020FCF754FD02211220FCF750FD07
:1047400041F238011320FCF74BFD2820FBF781FED6
:1047500012210846FCF744FD2820FBF77AFE43F2BD
:1047600020411020FCF73CFD43F238011320FCF7F8
:1047700037FD4620FBF76DFE00213020FCF730FDB1
:1047800040F202413120FCF72BFD40F2073132208C
:10479000FCF726FD4FF441713320FCF721FD042185
:1047A0003420FCF71DFD40F201413520FCF718FDD7
:1047B00039463620FCF714FD40F205313720FCF76E
:1047C0000FFD4FF4C26319463820FCF709FD194666
:1047D0003920FCF705FD31460120FCF701FD51466B
:1047E0000220FCF7FDFC41F230010320FCF7F8FC4D
:1047F00040F608010820FCF7F3FC08210A20FCF72A
:10480000EFFC4FF41C516020FCF7EAFC0121612011
:10481000FCF7E6FC4FF49F719020FCF7E1FC314679
:104820009220FCF7DDFC31469320FCF7D9FC4FF4D5
:104830004051A020FCF7D4FC1021A320FCF7D0FCB1
:1048400001210720FCF7CCFC21210720FCF7C8FC44
:1048500023210720FCF7C4FC33210720FCF7C0FC10
:1048600040F233119EE6E22020801D2028800220A5
:104870002880042028806420FBF7D9FDE0202080D8
:10488000012028800A20FBF7E4FDE020208003209F
:1048900028800C20FBF7DDFD012020800A20FBF79B
:1048A000D8FDE62020802F202880FF202880288027
:1048B000B02020802020288000202880032028800D
:1048C00040F21F3028800120288040F2DF1028802D
:1048D00000202880B42020800420288040F21F403F
:1048E0002880002028802E202880002028802880F2
:1048F00028802880B6202080022028804FF4037072
:10490000288000202880172028801520288000205B
:1049100028802880F02020800320288029202080E3
:10492000D020208000202880BE20208005202880E4
:10493000FE202880012028800020288028802880D0
:10494000B82020800320288001202880BA202080E1
:10495000012028806420FCF731FF0020FCF747FF8E
:10496000FE490120C1F880014046BDE8F05FFDF737
:1049700098B82DE9F843FA4D1F468046AB88089E4B
:10498000A3F5D040043802D1A879012807D0A2EBC2
:104990000800401C85B20C46DFF8C89328E02B883D
:1049A0000846991A0024AC713A462A24A3EB08035E
:1049B0006C812B27491E5B1EAF8189B29BB200968A
:1049C000FFF7D7FF0120A8716F81AC81BDE8F883A4
:1049D00021464046FCF728FCFCF710FC0020494625
:1049E00002E00E80401C80B2A842FAD3641CA4B23C
:1049F000BC42EDD9EAE72DE9F0478246A2EB0A0076
:104A0000401C0E4685B2981B401C87B20024DFF87C
:104A10005493DDF8208014E0301981B25046FCF741
:104A200003FCFCF7EBFB0020494606E004FB050312
:104A300038F813200A80401C80B2A842F6D3641CC8
:104A4000A4B2BC42E8D3BDE8F0872DE9FE4F0026B2
:104A5000A2EB000882465F1A701E35468946B8F1FF
:104A6000000F02DD4FF0010102E003D14FF0000121
:104A7000019102E0C8F100080190002F02DD4FF023
:104A8000010002E003D14FF00000009002E0C7F106
:104A9000000700904046B84501DD044600E03C4672
:104AA000601C4FF0000B029015E01FFA89F11FFA0D
:104AB0008AF0FCF7EEFD46443D44A64202DD019932
:104AC000361B8A44A54202DD00992D1B89440BF157
:104AD00001001FFA80FB02998B45E6DDBDE8FE8FE1
:104AE000F0B51C4615460E4607460B46FFF7ADFFD0
:104AF0003A46234631461046FFF7A7FF23462A468B
:104B000019463846FFF7A1FF2A4623463146BDE83D
:104B1000F040104699E72DE9FC4F804600241546E9
:104B200003200F46A0EB450649E0781B81B208EB55
:104B3000040A01901FFA8AF0FCF7ABFD381B81B222
:104B400008EB050900901FFA89F0FCF7A2FD07EBBE
:104B5000040B1FFA8BF11FFA89F0FCF79AFD07EBA3
:104B600005091FFA89F11FFA8AF0FCF792FDA8EBFC
:104B7000040A1FFA89F11FFA8AF0FCF78AFDA8EBF4
:104B800005091FFA8BF11FFA89F0FCF782FD0198E5
:104B900081B21FFA8AF0FCF77CFD009881B21FFAFF
:104BA00089F0FCF776FD641C002E03DA06EB840620
:104BB000B61D04E0601B06EB80066D1E0A36AC4293
:104BC000B3DDBDE8FC8F2DE9F84F82461F460C4649
:104BD0008B46580700D0012000EBD70079084843E6
:104BE000203AC0B202F0FF090026009041E00C2FED
:104BF00010D0102F12D0182F3ED15B4909EBC900FD
:104C000001EB80004FF00008855D28060AD5574863
:104C100002880BE009EB49005549F1E7554901EBE2
:104C20000910EFE70A9828B95048428821465046B3
:104C3000FCF73AFD6806050E4948641CA4B240889A
:104C4000A04219D9A4EB0B00B84209D10AF1010026
:104C50001FFA80FA42485C46018851450CD906E0AB
:104C600008F1010000F0FF08B8F1080FCDD3761C61
:104C7000F6B200988642BAD3BDE8F88F0346012009
:104C800000E05843491EC9B2FBD270472DE9FF4FDF
:104C900081B00027DDF838B01D46924680463C467C
:104CA000B9464FEA5B0627E0281B401EC1B20A2026
:104CB000FFF7E4FFBAFBF0F00A21B0FBF1F201FBD1
:104CC000120027B9691E8C4201DA48B10127303041
:104CD000C2B206FB048080B25B46CDF8009006E0CD
:104CE00006FB048080B25B462022CDF8009002993A
:104CF000FFF769FF641CE4B2AC42D5D305B0BDE850
:104D0000F08F2DE9FF4F81B08046DDF83CA00E9872
:104D10004FF000091F4693464C460AF0010546082D
:104D20003AE0381B401EC1B20A20FFF7A7FFBBFBC9
:104D3000F0F00A21B0FBF1F201FB1200B9F1000F13
:104D400005D1791E8C4202DAC0B14FF00109303032
:104D5000C2B206FB048080B200950DE000802142C3
:104D60001C0200200008006C0E7500080E000020D8
:104D7000AA6A00081E6F00080E9B08E05FEA0A603E
:104D800006FB04800E9B80B2009508D53022029964
:104D9000FFF719FF641CE4B2BC42C2D3AEE7202285
:104DA000F5E72DE9F84F044600F0FF0810190D460D
:104DB000DDE90A761FFA80FA58191FFA80F94FF0D8
:104DC000000B11E0544502D3E819444685B24D4525
:104DD0000FD23B4629462046CDF800B0FFF7F3FE40
:104DE00004EB570084B2761C3278A2F120005E28D2
:104DF000E8D941E7F0B58DB004461E2308AA6946FC
:104E000000F006FE0990002872D19DF820002718B6
:104E100000253E4C8DF820509DF8200054F82010BD
:104E2000684600F063FD38B19DF82000401CC0B218
:104E30008DF820000728EFD39DF820000426344C7D
:104E4000072855D2DFE800F00404395A605F5E009D
:104E500030A000F07DFF30A000F07AFF3EA000F00F
:104E600077FF4DA000F074FF5BA000F071FF6AA017
:104E700000F06EFF78A000F06BFF86A000F068FFE6
:104E80008BA000F065FF93A000F062FF97A000F0F8
:104E90005FFF9CA000F05CFFA1A000F059FFA7A05D
:104EA00000F056FFB3A000F053FFC0A000F050FF89
:104EB000CBA000F04DFFD7A01BE016A000F048FFEC
:104EC000E4A000F045FF8DF820500BE0216806EBD0
:104ED000C0000958EFA000F03BFF9DF82000401CE7
:104EE0008DF82000217D9DF820008142EED856E209
:104EF00057E200F02DFF00200DB0F0BD05A000F03E
:104F000027FFCBE12CE20CE2EBE1000014000020D3
:104F1000600000200D0A00002D2D2D2D2D2D2D2D92
:104F20002D2D2D2D2D2D2D2D2D2D2D2D2D2D2D2DB1
:104F300055534D4152542056332E322D2D2D2D2DAB
:104F40002D2D2D2D2D2D2D2D2D2D2D2D2D2D2D2D91
:104F50002D2D2D200D0A00002020202055534D41DD
:104F60005254CAC7D3C9414C49454E54454BBFAAB8
:104F7000B7A2B5C4D2BBB8F6C1E9C7C9B5C4B4AE0F
:104F8000BFDAB5F7CAD4BBA5BDBBD7E9BCFE2CCDF3
:104F9000A8B9FD200D0A0000CBFC2CC4E3BFC9D288
:104FA000D4CDA8B9FDB4AEBFDAD6FACAD6B5F7D318
:104FB000C3B3CCD0F2C0EFC3E6B5C4C8CEBACEBA44
:104FC000AFCAFD2CB2A2D6B4D0D02ED2F2B4CB2C24
:104FD000C4E3BFC90D0A0000D2D4CBE6D2E2B8FCCC
:104FE000B8C4BAAFCAFDB5C4CAE4C8EBB2CECAFDF4
:104FF00028D6A7B3D6CAFDD7D62831302F3136BD33
:10500000F8D6C62CD6A7B3D6B8BACAFD29A1A2D75E
:10501000D6B7FBB4AE0D0A00A1A2BAAFCAFDC8EB69
:10502000BFDAB5D8D6B7B5C8D7F7CEAAB2CECAFDC3
:10503000292CB5A5B8F6BAAFCAFDD7EEB6E0D6A70B
:10504000B3D63130B8F6CAE4C8EBB2CECAFD2CB242
:10505000A2D6A7B3D60D0A00BAAFCAFDB7B5BBD862
:10506000D6B5CFD4CABE2ED6A7B3D6B2CECAFDCF40
:10507000D4CABEBDF8D6C6C9E8D6C3B9A6C4DC2C0E
:10508000D6A7B3D6BDF8D6C6D7AABBBBB9A6C4DCD3
:105090002E0D0A00BCBCCAF5D6A7B3D63A777777EF
:1050A0002E6F70656E6564762E636F6D0D0A00005D
:1050B00055534D415254D3D037B8F6CFB5CDB3C3C5
:1050C000FCC1EE28B1D8D0EBD0A1D0B4293A0D0A5A
:1050D000000000003F3A202020202020BBF1C8A182
:1050E000B0EFD6FAD0C5CFA20D0A000068656C708B
:1050F0003A202020BBF1C8A1B0EFD6FAD0C5CFA28C
:105100000D0A00006C6973743A202020BFC9D3C314
:10511000B5C4BAAFCAFDC1D0B1ED0D0A0A00000096
:1051200069643A2020202020BFC9D3C3BAAFCAFD8A
:10513000B5C44944C1D0B1ED0D0A0A006865783A9A
:1051400020202020B2CECAFD3136BDF8D6C6CFD43D
:10515000CABE2CBAF3B8FABFD5B8F12BCAFDD7D660
:10516000BCB4D6B4D0D0BDF8D6C6D7AABBBB0D0A46
:105170000A0000006465633A20202020B2CECAFDF8
:105180003130BDF8D6C6CFD4CABE2CBAF3B8FABFF8
:10519000D5B8F12BCAFDD7D6BCB4D6B4D0D0BDF8A3
:1051A000D6C6D7AABBBB0D0A0A00000072756E7482
:1051B000696D653A312CBFAAC6F4BAAFCAFDD4CB2B
:1051C000D0D0BCC6CAB13B302CB9D8B1D5BAAFCA61
:1051D000FDD4CBD0D0BCC6CAB13B0D0A0A0000003A
:1051E000C7EBB0B4D5D5B3CCD0F2B1E0D0B4B8F100
:1051F000CABDCAE4C8EBBAAFCAFDC3FBBCB0B2CEED
:10520000CAFDB2A2D2D4BBD8B3B5BCFCBDE1CAF8CA
:105210002E0D0A002D2D2D2D2D2D2D2D2D2D2D2D2D
:105220002D2D2D2D2D2D2D2D2D2D2D2D2D2D414C7B
:1052300049454E54454B2D2D2D2D2D2D2D2D2D2DEC
:105240002D2D2D2D2D2D2D2D2D2D2D2D2D2D2D209B
:105250000D0A00002D2D2D2D2D2D2D2D2D2D2D2D1B
:105260002D2D2D2D2D2D2D2D2D2D2D2D2DBAAFCAC2
:10527000FDC7E5B5A52D2D2D2D2D2D2D2D2D2D2D3C
:105280002D2D2D2D2D2D2D2D2D2D2D2D2D2D2D2D4E
:10529000200D0A0025730D0A00000000F1A000F0A7
:1052A00057FD8DF8205016E0216806EBC0000BABCF
:1052B00008580AAA694600F0CAFB9DF82010206829
:1052C00050F831206946F7A000F042FD9DF820001B
:1052D000401C8DF82000217D9DF820008142E3D8FC
:1052E0005DE0AFF2D03000F033FD08AA69463846E1
:1052F00000F05FFC9DF82000002843D109A9684612
:1053000000F01AFB8DF8200010B104283AD102E019
:10531000E9A009991CE0EBA000F01AFD0120E0755E
:105320003DE0E7A000F014FD08AA6946384600F009
:1053300040FC9DF8200028BB09A9684600F0FCFA53
:105340008DF8200010B104281CD104E0E2A00999D6
:1053500000F0FEFC23E0E3A000F0FAFCE5751EE09F
:10536000D7A000F0F5FC08AA6946384600F021FCF9
:105370009DF8200030B909A9684600F0DDFA8DF8E3
:10538000200008B10220B7E5099810F0FF0084F86A
:10539000EC0001D0D8A000E0DEA000F0D9FCC8A04D
:1053A000A7E50120A8E5E248018821F0010101807C
:1053B000DF494FF6FF701C310880DD4900201431B1
:1053C0000880DC49C1F8F0007047D9480088D94905
:1053D000C007D1F8F00004D04FF6FF721044C1F8B6
:1053E000F000D34A143212881044C1F8F00070471C
:1053F00010B5CF4C2088C0070BD0CE48006980473D
:10540000CB49002014310880C9494FF47A701C310F
:105410000880208820F00100208010BDC64AD36992
:1054200043F00403D361C24A1C321080101F018074
:10543000BF48001F018841F001010180BC481038BD
:10544000018841F00101018002231E220321084648
:10545000FBF728B800EBC00101EB00104FF0FF3163
:1054600001EB800010B581B24FF47A70FFF7D6FFE0
:10547000B0490120C87510BD70B594B0064613AB95
:1054800011AA694600F0E3FA002824D18DF8400003
:10549000A84C042514E0206805EBC10113AB40586B
:1054A00012AA08A900F0D3FA002814D1694608A866
:1054B00000F01CFA88B19DF84000401C8DF84000B7
:1054C000207D9DF840108842E5D8207D9DF8401051
:1054D00088420ED1042014B070BD9DF848009DF89C
:1054E0004410884201D90220F5E79DF84000A075DC
:1054F000EBE710A9304600F0BDFB0028EBD19DF88A
:10550000400060750020E6E72DE9F041894E9AB031
:10551000B57D307DA8427DD90421306801EBC501FD
:1055200019AB405818AA10A900F091FA10A983A04D
:1055300000F00EFC00240DF1180832E0308B012140
:10554000A140084217D022217EA000F001FC204695
:1055500000F081FB81197CA0243100F0F9FB2221AD
:1055600078A000F0F5FB204600F075FB30442430B5
:1055700048F824000BE0204600F06DFB3044416AFF
:1055800048F82410F07D00B370A000F0E1FB9DF816
:105590006000401E844202D06EA000F0D9FB641C63
:1055A000E4B29DF860008442C8D36BA000F0D0FB49
:1055B000FFF7F9FE707D0B2814D2DFE800F0080D2C
:1055C00031384048E8F4E5E4E30064A0DDE7306802
:1055D00050F83500804704E0306850F835100698E0
:1055E00088470746FFF7F1FE9DF86400012838D090
:1055F0005BA000F0ADFB96F8EC0000280DD0D6F8CB
:10560000F0000A21B0FBF1F201FB1202B0FBF1F154
:1056100054A000E001E000F09BFB1AB0BDE8F0816F
:10562000306850F83520DDE906019047D9E7306849
:1056300006AC50F8353094E807009847D1E7306859
:1056400006AF50F8354097E80F00A047C9E70A9821
:105650000090306806AF50F8354097E80F00A0473B
:10566000BFE7DCE02D2D2D2D2D2D2D2D2D2D2D2DBC
:105670002D2D2D2D2D2D2D2D2D2D2D2D2DBAAFCAAE
:10568000FD204944202D2D2D2D2D2D2D2D2D2D2D61
:105690002D2D2D2D2D2D2D2D2D2D2D2D2D2D2D2D3A
:1056A000200D0A0025732069642069733A0D0A30C1
:1056B00058253038580D0A004845583A3058255872
:1056C0000D0A00003136BDF8D6C6B2CECAFDCFD421
:1056D000CABE210D0A0000004445433A256C750DF1
:1056E0000A0000003130BDF8D6C6B2CECAFDCFD414
:1056F000CABE210D0A00000052756E2054696D6506
:105700002043616C63756C6174696F6E204F4E0D40
:105710000A00000052756E2054696D652043616C6B
:1057200063756C6174696F6E204F46460D0A000008
:105730001008004060000020001002400D0A257390
:10574000280000002563000025730000305825580C
:10575000000000002C00000029000000256C6400FF
:105760003B0D0A0046756E6374696F6E2052756E4C
:105770002054696D653A25642E2531646D730D0AD8
:105780000000000039E028E01AE00CE0FFE7DDE966
:105790000A01CDE90001306806AF50F8354097E8BE
:1057A0000F00A0471DE70AAB06AF93E807008DE89E
:1057B0000700306850F8354097E80F00A04710E721
:1057C0000AAC06AF94E80F008DE80F00306850F87F
:1057D000354097E80F00A04703E70BAC06AF94E80D
:1057E0000F0001AC84E80F000A980090306850F870
:1057F000354097E80F00A047F3E60CAC06AF94E8FD
:105800000F0002AC84E80F00DDE90A01CDE90001D8
:10581000306850F8354097E80F00A047E1E6F07D8A
:10582000394618B11BA000F093FAE4E61CA0FAE791
:105830002DE9F0411C4E3088010426D51B49C0B229
:105840001B4F00250D54B9681848884704000FD035
:105850001648FFF7CFFA012801D0040014D0012C1C
:1058600009D0022C09D0032C09D0042C0CD108E05B
:10587000F868804708E00FA004E011A002E013A040
:1058800000E015A000F064FA3580C7E600687047B4
:10589000016070473D305825583B0D0A000000005C
:1058A0003D256C753B0D0A000400002054010020CA
:1058B00060000020BAAFCAFDB4EDCEF3210D0A009E
:1058C000B2CECAFDB4EDCEF3210D0A00B2CECAFDB0
:1058D000CCABB6E0210D0A00CEB4D5D2B5BDC6A57D
:1058E000C5E4B5C4BAAFCAFD210D0A0002780B7831
:1058F0009A4201D00120704712B1401C491CF5E7C3
:105900000020704702780A700278002A02D0401CFA
:10591000491CF7E77047002102781AB1491CC9B247
:10592000401CF9E7084670470346012000E0584351
:10593000491EC9B2FBD270472DE9F04100240E4642
:105940000A272546014634600A78A2F13003092B64
:1059500014D903782D2B01D02B2B00D174B1A2F1D7
:105960004103052B0AD9582A05D012F0FF0F16D093
:105970000120BDE8F081012C02D0F9E7412A00D3D3
:10598000102702782D2A04D02B2A04D0641CE4B2FC
:1059900003E0022500E00125401C491CD4E78446B1
:1059A000102F01D09CB115E0032C01D20220E0E7BA
:1059B0009CF80000302803D19CF80100582801D041
:1059C0000320D6E7A41EE4B20CF1020C01E004208F
:1059D000CFE70CB1641EE4B29CF8000001463038F9
:1059E000092801D8804601E0A1F137082146384650
:1059F000FFF79AFF326808FB002030601CF8011F97
:105A00000029E6D1022D01D1404230600020B0E7EC
:105A100030B5002515700AE001F8014B1478401CE0
:105A2000641CE4B214709C4201D3012030BD0478A0
:105A3000202C01D0002CEFD10D70002030BD10F8CB
:105A4000011F202901D10028F9D1C8B270472DE9E2
:105A5000FF4F002482B088468346A1462746012591
:105A6000264622465946EA4615E0202810D002F084
:105A70007F03052B0CD202B9802202F07F03042B96
:105A800001D12A280AD1521C0AF80300D2B201E03F
:105A9000852A04D0491C08780028E6D172B102F0AA
:105AA0007F024FF0000C0AF802C0A5A15046FFF794
:105AB0001DFF38B105980121017000224FF0000C44
:105AC0005B4615E0059981F800C0F6E713F8010F71
:105AD0000CF1010C0CF0FF0C202801D02A2807D172
