:020000040800F2
:100000000808002049010008A10100089D0100081E
:100010009F010008910100081D0600080000000073
:100020000000000000000000000000001F050008A4
:1000300093010008000000001D050008C905000824
:100040006301000863010008630100086301000800
:1000500063010008630100086301000863010008F0
:1000600063010008630100086301000863010008E0
:1000700063010008630100086301000863010008D0
:10008000630100086301000863010008000000002C
:1000900000000000000000000000000063010008F4
:1000A00063010008630100086301000863010008A0
:1000B0006301000863010008630100086301000890
:1000C0006301000863010008630100086301000880
:1000D0006301000863010008630100086301000870
:1000E0006301000863010008630100086301000860
:1000F0006301000863010008000000000000000028
:100100000000000000000000630100086301000817
:10011000630100086301000863010008630100082F
:10012000630100086301000863010008630100081F
:1001300063010008DFF80CD000F018F80048004711
:100140009106000808080020064880470648004736
:10015000FEE7FEE7FEE7FEE7FEE7FEE7FEE7FEE777
:10016000FEE7FEE7CD05000835010008064C074D07
:1001700006E0E06840F0010394E807009847103477
:10018000AC42F6D3FFF7DAFF6011000880110008D7
:10019000FEE770474161704701617047FEE7FEE787
:1001A0007047000030B40021084B0A465FF00000A1
:1001B00003EBC004401CC0B262548028F8D3491C31
:1001C000C9B20829F2D330BC00F0ACB8040000205A
:1001D00010B57F2816D83F2914D80723A3EBD103E5
:1001E00001F00701C1F107040121A140064CDBB277
:1001F00004EBC000002AC25CC9B201D00A4300E08F
:100200008A43C25410BD000004000020404810B5CD
:10021000816941F0040181613E4801683E4A114014
:10022000016001683D4A114301603D4C0020C4F863
:100230009C01642004F5CE7400F016FA01202060C1
:100240000021AE2000F038F90021D52000F034F96B
:100250000021502000F030F90021A82000F02CF9F6
:1002600000213F2000F028F90021D32000F024F9DC
:100270000021084600F020F90021402000F01CF980
:1002800000218D2000F018F90021142000F014F94D
:100290000021202000F010F90021022000F00CF9CC
:1002A0000021A12000F008F90021C02000F004F98D
:1002B0000021DA2000F000F90021122000F0FCF803
:1002C0000021812000F0F8F80021EF2000F0F4F880
:1002D0000021D92000F0F0F80021F12000F0ECF826
:1002E0000021DB2000F0E8F80021302000F0E4F8E5
:1002F0000021A42000F0E0F80021A62000F0DCF8A6
:100300000021AF2000F0D8F8BDE81040FFF74ABF49
:100310000010024000080140FF0F0F0000202022C3
:100320000000214270B5114E002400BF04F1B0005E
:10033000C0B2002100F0C0F80021084600F0BCF86F
:100340000021102000F0B8F85FF0000506EBC500B2
:100350000121005D00F0B0F86D1CEDB2802DF5D3E9
:10036000641CE4B2082CE1D370BD0000040000203E
:100370002DE9FF4F203A1F460C46894602F0FF0A3E
:100380000025DDF834B032E00C2F09D01A4901EB1A
:100390000A104FF00008465D300607D55A4609E0BE
:1003A00016490AEB4A0001EB8000F2E7BBF1000FAF
:1003B00012D0002221460098FFF70AFF7006641C45
:1003C000060EE4B2A4EB0900B84207D100984C46EF
:1003D000401CC0B2009008E00122EBE708F10100E8
:1003E00000F0FF08B8F1080FD6D36D1CEDB2BD4286
:1003F000CAD3BDE8FF8F0000700B0008FC060008A0
:100400002DE9FF4F81B00026DDF838A01D46934648
:10041000814634464FF001084FEA5A0727E0281B6F
:10042000401EC1B20A2000F03EF9BBFBF0F00A21E9
:10043000B0FBF1F201FB120026B9691E8C4201DA11
:1004400048B101263030C2B207FB0490C0B2534617
:10045000CDF8008006E007FB0490C0B2534620228E
:10046000CDF800800299FFF783FF641CE4B2AC4230
:10047000D5D305B0BDE8F08FF8B516460D46044655
:10048000012714E07A2C02D900241035EDB23A2D60
:1004900003D900242546FFF785FE009732780C2308
:1004A00029462046FFF764FF0834E4B2761C307812
:1004B0000028E7D1F8BD00002DE9F0410026154CD9
:1004C0000746012511B1C4F88C5101E0C4F88C61D4
:1004D000DFF8448040214046FFF75CFE5FF00000FB
:1004E000C4F89461390602D5C4F8985101E0C4F803
:1004F0009861C4F894517906401C0F0EC0B20828C8
:10050000EED340214046FFF747FEC4F88C51BDE8CA
:10051000F081000000002142001401407047704744
:100520000CB50021264801910091026842F4803206
:1005300002604FF4A063026802F400320092019A54
:10054000521C0192009A12B9019A9A42F3D10268A0
:10055000920333D5012100911A490A6842F0100232
:100560000A600A6822F003020A600A6842F0020286
:100570000A604168416041684160416841F48061BE
:100580004160416821F47C114160416841F4E81107
:100590004160016841F08071016001688901FCD50A
:1005A000416821F003014160416841F0020141606E
:1005B0004168C1F381010229FAD10CBD00910CBD43
:1005C0000010024000200240704700000F4810B5A4
:1005D000016841F00101016041680D4A114041602C
:1005E00001680C4A11400160016821F4802101601A
:1005F000416821F4FE0141604FF41F018160FFF763
:100600008FFF05494FF00060086010BD00100240E8
:100610000000FFF8FFFFF6FE08ED00E0FEE702E055
:1006200008C8121F08C1002AFAD17047704700207D
:1006300001E001C1121F002AFBD170474FF0E021F9
:100640000A6922F004020A610649C00800EB400270
:100650000870C2EBC0104FF6FF7202EAC00048807B
:1006600070470000000000200849498848434FF0C7
:10067000E02148610020886101220A610A69D307EC
:1006800001D0D203FAD508618861704700000020CC
:10069000FFF79CFF4820FFF7D1FFFFF7B7FD00BF32
:1006A00000F00AF8FCE70246012000E05043491E32
:1006B000C9B2FBD27047000008B500210AA2084663
:1006C000FFF7DAFE0BA214210020FFF7D5FE0C2065
:1006D0000090032364220A210020FFF791FEBDE869
:1006E0000840FFF71FBE00004D696E6942616C61F2
:1006F0006E63650054455354204F4B0000000000CA
:100700000000000000000000000000003F4000006A
:1007100000000000000030004000300040000000F9
:1007200009000BC03D000BC03D00090018C024406B
:100730007FE0224031800000180024C01B000D80A3
:100740003240018003801C4027401C80074000404D
:100750001000600000000000000000000000000029
:1007600000001F80204040200000402020401F80CB
:1007700000000000090006001F80060009000000BC
:10078000040004003F80040004000000001000602A
:100790000000000000000000040004000400040049
:1007A0000400000000000040000000000000000005
:1007B000002001C006003800400000001F802040DB
:1007C000204020401F800000000010403FC000403B
:1007D0000000000018C021402240244018400000C2
:1007E00010802040244024401B80000002000D00A7
:1007F00011003FC0014000003C80244024402440C0
:10080000238000001F8024402440344003800000E7
:100810003000200027C03800200000001B8024404A
:10082000244024401B8000001C0022C022402240A3
:100830001F800000000000000840000000000000D1
:100840000000000004600000000000000000040040
:100850000A00110020804040090009000900090039
:100860000900000000004040208011000A00040040
:100870001800200023402400180000001F802040A2
:10088000274029401F400000004007C039000F00EA
:1008900001C0004020403FC0244024401B80000095
:1008A0001F802040204020403080000020403FC07A
:1008B000204020401F80000020403FC024402E40A8
:1008C00030C0000020403FC024402E003000000017
:1008D0000F001080204022403380020020403FC0A3
:1008E000040004003FC02040204020403FC0204082
:1008F000204000000060202020203FC02000200079
:1009000020403FC024400B0030C0204020403FC06A
:1009100020400040004000C03FC03C0003C03C00FD
:100920003FC0000020403FC00C4023003FC02000DB
:100930001F802040204020401F80000020403FC0FA
:1009400024402400180000001F802140214020E0A6
:100950001FA0000020403FC02440260019C00040D6
:1009600018C0244024402240318000003000204044
:100970003FC020403000000020003F800040004089
:100980003F80200020003E0001C00700380020000A
:10099000380007C03C0007C038000000204039C0C4
:1009A000060039C0204000002000384007C0384011
:1009B00020000000304021C02640384020C0000008
:1009C000000000007FE04020402000000000700098
:1009D0000C000380004000000000402040207FE029
:1009E0000000000000002000400020000000000087
:1009F0000010001000100010001000100000000097
:100A0000400000000000000000000280054005409A
:100A100003C0004020003FC00440044003800000A9
:100A200000000380044004400640000000000380F2
:100A3000044024403FC000400000038005400540C2
:100A400003400000000004401FC024402440200058
:100A5000000002E0055005500650042020403FC031
:100A60000440040003C000400000044027C00040D0
:100A70000000000000100010041027E0000000003B
:100A800020403FC00140070004C0044020402040F7
:100A90003FC000400040000007C0040007C0040041
:100AA00003C00000044007C00440040003C000402D
:100AB000000003800440044003800000041007F09D
:100AC00004500440038000000000038004400450F0
:100AD00007F00010044007C00240040004000000BA
:100AE000000006400540054004C00000000004006E
:100AF0001F800440004000000400078000400440C4
:100B000007C000400400070004C001800600040084
:100B1000060001C0070001C006000000044006C036
:100B2000010006C0044000000410071004E001802A
:100B3000060004000000044005C006400440000018
:100B40000000000004007BE04020000000000000E6
:100B50000000FFF000000000000040207BE00400E7
:100B60000000000040008000400020002000400005
:100B70000000000000000000000000000000000075
:100B80000000000000001FCC000C0000000000006E
:100B90000000080030006000080030006000000025
:100BA000022003FC1E20022003FC1E200220000065
:100BB00000000E1811043FFF10840C7800000000A4
:100BC0000F0010840F3800C00778188400780000E8
:100BD00000780F8410C411240E9800E400840008EB
:100BE0000800680070000000000000000000000025
:100BF00000000000000007E0181820044002000078
:100C0000000040022004181807E000000000000067
:100C10000240024001800FF00180024002400000CB
:100C20000080008000800FF80080008000800000BD
:100C30000001000D000E0000000000000000000098
:100C40000000008000800080008000800080008024
:100C50000000000C000C000000000000000000007C
:100C60000000000600180060018006001800200047
:100C7000000007F0080810041004080807F000003E
:100C80000000080408041FFC000400040000000029
:100C900000000E0C10141024104411840E0C0000DF
:100CA00000000C1810041104110412880C700000CC
:100CB000000000E00320042408241FFC002400009E
:100CC00000001F9810841104110410881070000097
:100CD000000007F008881104110418880070000053
:100CE00000001C00100010FC13001C00100000008D
:100CF00000000E3811441084108411440E38000096
:100D000000000700088C10441044088807F0000019
:100D1000000000000000030C030C000000000000B5
:100D200000000000000101060000000000000000BB
:100D30000000008001400220041008081004000098
:100D400002200220022002200220022002200000B5
:100D50000000100408080410022001400080000078
:100D600000000E001200100C106C10800F0000002C
:100D700003E00C1813E4142417C4082807D000005B
:100D80000004003C03C41C40074000E4001C0004B5
:100D900010041FFC1104110411040E8800700000DF
:100DA00003E00C1810041004100410081C100000BC
:100DB00010041FFC100410041004080807F00000C1
:100DC00010041FFC1104110417C4100408180000BB
:100DD00010041FFC1104110017C0100008000000CF
:100DE00003E00C181004100410441C7800400000AC
:100DF00010041FFC10840080008010841FFC10046D
:100E00000000100410041FFC100410040000000077
:100E100000030001100110011FFE1000100000006F
:100E200010041FFC110403801464181C100400003B
:100E300010041FFC1004000400040004000C000057
:100E400010041FFC1F0000FC1F001FFC100400000A
:100E500010041FFC0C04030000E010181FFC10001D
:100E600007F00808100410041004080807F0000038
:100E700010041FFC10841080108010800F000000F0
:100E800007F0081810241024101C080A07F20000AC
:100E900010041FFC1104110011C011300E0C0004CD
:100EA00000000E1C11041084108410441C38000033
:100EB0001800100010041FFC10041000180000009F
:100EC00010001FF810040004000410041FF81000A4
:100ED00010001E0011E0001C007013801C001000A8
:100EE0001FC0103C00E01F0000E0103C1FC00000CD
:100EF0001004180C163401C001C01634180C10046C
:100F000010001C00130400FC13041C00100000005F
:100F10000804101C1064108413041C041018000032
:100F20000000000000007FFE40024002400200007E
:100F3000000030000C0003800060001C0003000073
:100F400000004002400240027FFE0000000000005E
:100F50000000000020004000400040002000000091
:100F60000001000100010001000100010001000179
:100F700000004000400020000000000000000000D1
:100F800000000098012401440144014400FC0004D5
:100F900010001FFC0088010401040088007000009C
:100FA00000000070008801040104010400880000B2
:100FB0000000007000880104010411081FFC0004F7
:100FC000000000F8014401440144014400C800004D
:100FD0000000010401040FFC1104110411001800A9
:100FE000000000D601290129012901C901060000DC
:100FF00010041FFC008401000100010400FC000437
:1010000000000104190419FC0004000400000000A1
:101010000000000300010101190119FE0000000099
:1010200010041FFC0024004001B4010C0104000066
:101030000000100410041FFC000400040000000065
:10104000010401FC0104010001FC0104010000FC99
:10105000010401FC008401000100010400FC000403
:10106000000000F8010401040104010400F800007C
:10107000010101FF008501040104008800700000E7
:1010800000000070008801040104010501FF000157
:101090000104010401FC008401040100018000003E
:1010A000000000CC01240124012401240198000047
:1010B00000000100010007F8010401040000000025
:1010C000010001F8000400040004010801FC000410
:1010D000010001800170000C00100160018001001E
:1010E00001F0010C003001C00030010C01F00100E2
:1010F00000000104018C00740170018C01040000E7
:10110000010101810171000E0018016001800100E0
:1011100000000184010C013401440184010C000031
:10112000000000000000000001003EFC4002400200
:101130000000000000000000FFFF000000000000B1
:101140000000400240023EFC0100000000000000E0
:10115000000060008000800040004000200020006F
:101160008011000800000020040000001E06000896
:101170008411000804000020040800002E06000866
:04118000000000006B
:0400000508000135B9
:00000001FF
